:020000040800F2
:10000000B84D00204901000813290008110200081A
:10001000112900084D0F0008653700080000000096
:100020000000000000000000000000001D2A000881
:100030004F0F0008000000009B01000889330008F2
:100040006301000863010008630100086301000800
:1000500063010008630100086301000863010008F0
:10006000510F0008630100086301000863010008E4
:1000700063010008630100086301000863010008D0
:1000800063010008630100086301000863010008C0
:1000900063010008630100086301000863010008B0
:1000A00063010008630100086301000863010008A0
:1000B0006301000863010008630100086301000890
:1000C00063010008630100086301000815290008A6
:1000D0006301000859370008630100086301000844
:1000E0006301000863010008630100086301000860
:1000F0006301000863010008630100086301000850
:10010000630100086301000863010008630100083F
:1001100063010008630100086534000863010008FA
:10012000630100086301000863010008630100081F
:10013000DFF810D000F0D2FC00480047430F000861
:10014000AFF30080B84D00200648804706480047BE
:10015000FEE7FEE7FEE7FEE7FEE7FEE7FEE7FEE777
:10016000FEE7FEE76134000831010008EFF310807C
:1001700072B6704780F310887047324A1368012BBB
:1001800004D04FF0010313602F4A10602F4A116012
:100190002F484FF0805101607047EFF3108272B624
:1001A0002848016891B14FF00001016026480168BC
:1001B00029B1EFF3098121E9F00F006801602349BB
:1001C00009680968B1E8F00F81F3098882F31088A3
:1001D0004EF0040E70471D4908601B494FF00000A7
:1001E000086018494FF0010008601A481A49D0F811
:1001F000002041EA0201016015484FF08051016082
:1002000016480068006880F3088861B662B67047D7
:100210001EF0040F0CBFEFF30880EFF3098020E914
:10022000F00F40F804ED1EF0040F0CBF80F30888B7
:1002300080F3098800B506F0ADFB5DF804EB4EF0E5
:10024000040E7047CC030020C4030020C803002024
:1002500004ED00E020ED00E00000FFFF08ED00E00D
:100260002DE9F05F0546002092469B4688460646EB
:10027000814640241BE0284641464746224600F07E
:1002800020F853465A46C01A914110D311461846D9
:10029000224600F061FA2D1A67EB01084F4622460C
:1002A0000120002100F058FA17EB00094E41201EF2
:1002B000A4F10104DFDC484631462A464346BDE846
:1002C000F09F202A04DB203A21FA02F00021704737
:1002D00021FA02F3D040C2F12002914008431946AE
:1002E000704700000649074A0868504343F2390244
:1002F00010440860400870470149086070470000DA
:10030000600400206D4EC64140EA01039B0703D004
:1003100009E008C9121F08C0042AFAD203E011F844
:10032000013B00F8013B521EF9D27047D2B201E006
:1003300000F8012B491EFBD270470022F6E710B5EA
:1003400013460A4604461946FFF7F0FF204610BD43
:10035000421E12F8013F002BFBD111F8013B02F8BD
:10036000013B002BF9D1704710B5044604E00B782F
:1003700000F8013B03B1491C521EF8D2204610BDC3
:10038000421C10F8011B0029FBD1801A704710B5E0
:10039000002200E0521C835C8C5CA34201D1002B44
:1003A000F8D1D8B2E1B2401A10BD034611F8012BC2
:1003B00000F8012B002AF9D11846704730B50546E0
:1003C0000020034600E05B1C934205D2EC5CC85C55
:1003D000201A01D1002CF6D130BDF0B480EA010220
:1003E000D40F4200B2EB410F02D20246084611463A
:1003F0004A0042D0C30DDDB2C1F3C752AD1A202D61
:1004000035DAC1F3160141F4000204B15242C5F1DC
:10041000200602FA06F12A411044B3EBD05F23D044
:10042000C4B1012DA0EBC35009DCF0BC4FF0004279
:1004300002EAC352DBB200F5000000F0F4B940005C
:1004400000F1807000EBC350A0F1807040EAD170E1
:10045000490009E0490841EAC071A0EBC35000F52A
:100460000000400800EBC350F0BC00F0D3B961427B
:10047000012202EB4101001BF6E7F0BC704781F05E
:100480000041AAE780F00040A7E780EA010210B52A
:1004900002F00043400022D04A001FD0010E01EBC1
:1004A0001261C0F35600C2F3560240F4000042F459
:1004B0000002A0FB022000047F39140400D0401C7D
:1004C00050EA124001D44000491EC2B20C0604EBAF
:1004D000D010401C4008802A02D003E0002010BD4C
:1004E00020F00100002900DA0020184310BD30B4CC
:1004F00080EA010202F0004530F0004221F00040A5
:1005000013D090B1C30DD40DC2F31601C0F3160081
:10051000E41A41F4000140F400027D34914201D319
:10052000641C00E04900002C02DA30BC0020704757
:100530004FF400000023914201D3891A034340087D
:100540004FEA4101F7D151B1914202D14FF0004140
:1005500005E002D24FF0010101E06FF0010103EB71
:10056000C450284430BC00F055B9420005D0C0F357
:10057000C7525242914201DC0020704700EBC1504B
:1005800070472DE9FE4F81EA030404F0004421F096
:10059000004100944FF0000B23F0004350EA0104A7
:1005A0005ED052EA03045BD0C3F30A54C1F30A5588
:1005B0002C44A4F2F3340194A0FB0254C1F31301C0
:1005C00041F48011C3F3130343F4801301FB02448D
:1005D00000FB034E840A970A44EA815447EA835792
:1005E000A4FB076802958D0A05FB07854FEA932C4B
:1005F00004FB0C542705029D4FEA065847EA1637BC
:10060000B5EB08056EEB070C870E920E47EA8117D3
:1006100042EA8312A7FB0201B6EB0B0164EB000474
:100620002B0D43EA0C335E1844EB1C50DA4651465E
:10063000E7FB0201C5F313044FEA0B3343EA1453FB
:100640004FEA0432019C43EA0603A4F10C0402942D
:10065000009CCDE900B400F041F903B0BDE8F08F93
:1006600000200146F9E7C10F80EAE0700844CA079C
:100670009623002100F0D7B800F0004220F000409F
:10068000C10DC0F3160040F400007F2901DA0020FC
:100690007047962903DCC1F19601C84001E0963904
:1006A0008840002AF4D04042704720F00040C10D3D
:1006B000C0F3160040F400007F2901DA00207047E3
:1006C000962903DCC1F19601C840704796398840ED
:1006D000704700F0004230F000400AD0C10D01F533
:1006E0006071C0F3160042EA0151C208400711438D
:1006F000704700200146704701F0004330B421F0FC
:10070000004150EA010206D00A0DA2F56072C1F361
:100710001301002A02DC30BC00207047440F44EA79
:10072000C104C100E01830BC00EBC25000F072B848
:10073000002801DBC0F10040002901DBC1F10041CC
:1007400081427047002801DBC0F10040002901DB35
:10075000C1F1004188427047202A04DB203A00FAA8
:1007600002F1002070479140C2F1200320FA03F308
:1007700019439040704700000FB4002300B589B0C2
:100780000CA900910B996FF00042CB601E4B0693B1
:100790001E4B07930423CDE901321D4A08920246FD
:1007A0006B46002000F046FA09B05DF814FB70B506
:1007B00086B006464FF0FF300091CDE901010020E0
:1007C00015460C4604903246694604A8FFF7D4FF4C
:1007D00002460498211825B108B1084600E02046D9
:1007E0002860049800280DD0002A02DD0098884275
:1007F00008D0081B0094CDE901043246694604A8DC
:10080000FFF7BAFF06B070BD6D0E00088B0E000832
:10081000010B00080029A8BF7047401C490008BF11
:1008200020F00100704710B4B0FA80FC00FA0CF020
:1008300050EA010404BF10BC704749B1CCF1200458
:1008400021FA04F411FA0CF118BF012121430843E5
:10085000A3EB0C01CB1D4FEA00614FEA102042BF11
:10086000002010BC704700EBC35010440029A4BF07
:1008700010BC7047401C490008BF20F0010010BCAC
:10088000704710B541000CD0C0F3C751962908DC61
:100890007E2909DC06DB410204D000F0004040F074
:1008A0007E5010BD002010BDC1F19604C4F120019E
:1008B00000FA01F1E040FFF7ADFFA04010BD10B518
:1008C000141E73F1000408DA401C41F10001921873
:1008D0005B411A4301D120F0010010BD2DE9F04D1C
:1008E00092469B4611B1B1FA81F202E0B0FA80F271
:1008F00020329046FFF730FF04460F4640EA0A00D8
:1009000041EA0B0153465A46084313D0114653EAB5
:10091000010019D0C8F140025046FFF7D2FC05464D
:100920000E46504659464246FFF716FF084305D08B
:10093000012004E020463946BDE8F08D0020054343
:1009400046EAE0762C4337430A986305E40AA0EBB5
:1009500008000022FD0A44EA47540A3002D500206C
:100960000146E9E7010510196941DDE9084500196B
:100970006941BDE8F04DA2E72DE9F04D81EA03049D
:1009800004F0004B21F0004514464FF0000A23F01C
:10099000004150EA050220D054EA01021DD0C5F3FF
:1009A0000A570246C5F31303C1F31300C1F30A56F5
:1009B00040F4801543F48013A7EB0608101BD646BD
:1009C00008F2FD3873EB050002D308F1010801E0DD
:1009D00092185B41B8F1000F03DA00200146BDE830
:1009E000F08D00204FF48011064684460EE0171B60
:1009F00073EB050705D3121B63EB050306434CEAB3
:100A0000010C49084FEA300092185B4150EA010797
:100A1000EDD152EA030012D082EA040083EA050114
:100A2000084305D0101BAB4106D20122002306E08B
:100A300000224FF0004302E06FF0010253101AEB66
:100A400006004CEB085110EB0A0041EB0B01BDE82E
:100A5000F04DFFF734BF10B500F0004420F0004027
:100A6000C20DC0F3160040F400007F2A07DA7D2A89
:100A700000DA7D22763A00FA02F1002008E0962A98
:100A800009DCA2F1760100FA01F1C2F19602D04030
:100A9000FFF7C0FE01E0963A9040002C00D04042A3
:100AA00010BD002801DBC0F10040002901DBC1F1CD
:100AB0000041814202D24FF0004004E04FF000506C
:100AC00001D14FF0C0404FEA2062EFF3008162F3A2
:100AD0001F6181F30088704700207047064C074D66
:100AE00006E0E06840F0010394E8070098471034FE
:100AF000AC42F6D3FFF720FB108A0008308A0008CA
:100B0000C0B24FF4F05100F0D1B900002DE9FF4F11
:100B1000087883B09946FF2805D0491C2D2804D0B9
:100B20000024002008E000200BE00124F9E700EB9E
:100B3000800003EB4000491C0B78FF2BF7D104B178
:100B4000404200230293147819461D462D2C01D0F3
:100B50002B2C04D1521C2D2C13D000240294AA4615
:100B60001478FF2C0FD00A25A3FB057801FB058123
:100B70004FF0000C03FB0C11521CE3194AEB01016E
:100B8000EEE70124EAE7814453EA010002D019F5B7
:100B9000C87F06DA03980021C0E9001107B0BDE85C
:100BA000F08F0025AE4E2F46DFF8B882184600F0D1
:100BB00091F9CDE90001B9F1000002DAC9F10004B0
:100BC00000E004460023A74A1AEB030B42EB045A49
:100BD00012E0E00707D02A46334638464146FFF781
:100BE000D0FC074688462A46334610461946FFF78A
:100BF000C8FC05460E466410002CEAD1DDE9000170
:100C0000B9F1000F5A46534606DAFFF7B5FE3A46E9
:100C10004346FFF7B1FE05E0FFF7B3FC3A46434613
:100C2000FFF7AFFC029A0AB181F00041039AC2E9D2
:100C30000001B3E72DE9FF4F1F468DB0D7E901460C
:100C40004FF0FF382E2045464FF000090B90B96950
:100C50006D1C0E988847396A824688470028F6D16D
:100C6000BAF1FF3F0AD024F4D064002E11DDBAF1AE
:100C70002B0F08D0BAF12D0F0BD102E0404611B076
:100C80008DE744F48064B9696D1C0E9888478246EC
:100C9000761E6946600501D52D2000E02B208DF8D9
:100CA000000001F1010B0DF1200809E0B9696D1C8C
:100CB0000E98884782460F9844F40074761E0560AB
:100CC000002E02DDBAF1300FF0D00B998A453ED1EB
:100CD00044F0800406E00F99681CA9F1010944F46E
:100CE00000740860B9696D1C761E0E9888478246AC
:100CF0003028F0D02BE00B998A4505D1200603D48B
:100D000044F08004761E18E0504602F0F5FD08B36A
:100D10000DF11301761E44F400748B4508D2AAF13C
:100D200030000BF8010B200607D5A9F1010003E004
:100D3000200602D409F101008146A00502D50F99D1
:100D4000681C0860B9696D1C0E9888478246002EA1
:100D5000D1DC53E0002E51DDBAF1650F02D0BAF1BB
:100D6000450F4BD1A00549D5B9696D1C24F44074D9
:100D7000761E0E9888478246002E0CDD2B2804D064
:100D8000BAF12D0F07D144F48074B9696D1C0E9827
:100D900088478246761EE00501D52D2100E02B21F3
:100DA00008F8011BCDF82C8021E00DF12901761EF9
:100DB00044F4007488450CD2AAF1300010F0FF0012
:100DC00088F8000002D10B99884509D908F101087B
:100DD00006E0E00501D5244801E042F20F708146AB
:100DE000B9696D1C0E98884782460F980560002EE1
:100DF00004DD504602F080FD0028D6D1F9690E9836
:100E00008847FF208BF8000088F80000002006903B
:100E100007904B466A4608A906A8FFF777FEA0058B
:100E200002D46FF001002AE714F0240F0AD0E00783
:100E300014D1DDE906123868031D3B600068C0E983
:100E400000120BE0DDE90601FFF756FC0146E00762
:100E500004D13868021D3A600068016028460EE738
:100E6000000014400000F03FF1D8FFFF426842B19B
:100E7000016811F8013B23B1521EC0E90012184667
:100E800070470121C160881E704742685AB1C3682B
:100E9000016843B983688B4205D0491E521CC0E9E2
:100EA0000012002070474FF0FF3070477F2801D9B3
:100EB000002208E0064A02EB5002C007127800D177
:100EC000120902F00F020120904008407047000014
:100ED000C88400080EB540F2334202920022CDE9E8
:100EE00000221346FFF7FAFC03B000BD70B58C1862
:100EF00010F8015B15F0070301D110F8013B2A112E
:100F000006D110F8012B03E010F8016B01F8016B1A
:100F10005B1EF9D12B0705D40023521E0DD401F816
:100F2000013BFAE710F8013BCB1A921C03E013F8DF
:100F3000015B01F8015B521EF9D5A142D8D3002014
:100F400070BD10B506F04CFF002010BDFEE77047E5
:100F5000042000F0CFB872B6FEE770B50D46044627
:100F6000FFF7C0F9064606F0E9FC3044291BB0FB48
:100F7000F1F201FB1200204470BD10B590F8211071
:100F80000022022905D00421816380F8202001205D
:100F900010BD01680B6823F00E030B6001680B683D
:100FA00023F001030B6090F84030C46B012101FA7B
:100FB00003F3636080F8211080F82020104610BDF4
:100FC0002DE9F05F90F821100024022903D00421BC
:100FD0008163012485E001680A6822F00E020A603C
:100FE00001680A6822F001020A603F4E3E4FB215C6
:100FF000DFF8F4C0DFF8F090DFF8ECA0DFF8E8B03D
:10100000DFF8E4E00168783F13011502ACF1640CED
:10101000A9F15009AAF13C0AABF1280BAEF1140E6C
:101020004FF48018B14227D9B9420ED0614512D091
:1010300049451DD0514518D0594518D0714501D1A9
:10104000424615E0294EB14201D1012210E0274E5F
:101050001436B14201D110220AE0244E2836B142A2
:1010600006D0224A3C32914201D11A4600E02A467B
:101070001E49091F0A602BE0B94213D0614517D001
:10108000494522D051451DD059451DD0714501D14A
:1010900042461AE0B14202D14FF0807215E0134E81
:1010A000B14201D1012210E0104E1436B14201D1FB
:1010B00010220AE00D4E2836B14206D00B4A3C32CF
:1010C000914201D11A4600E02A46074980394A6018
:1010D000012180F82110002180F82010416B01B11E
:1010E00088472046BDE8F09F800002400804024087
:1010F00070470000044910B50A68024202D0086037
:10110000FFF7F6FF10BD0000140401402DE9F84F71
:10111000DFF8C8910024A9F1040B23460F2709F139
:10112000040AABF1040ED1E00125A54006EA050250
:10113000AA4276D1DFF8A8C14E68A6EB0C08664536
:101140002BD00DDC032E34D005DC36B3012E19D0A4
:10115000022E2FD11BE0112E16D0122E2AD119E00B
:10116000B8F5881F19D006DCB8F5803F15D0B8F562
:10117000801F1FD111E0B8F5001F0ED0B8F5041F75
:1011800018D10AE0CB6815E0CB681B1D12E0CB68D4
:1011900008330FE0CB680C330CE08B682BB1012BCC
:1011A0004FF0080303D0456104E0042302E0056129
:1011B00000E00023FF2A01D8064601E000F1040602
:1011C0004FEA840501D9A5F12005D6F8008007FA79
:1011D00005FC28EA0C0803FA05F548EA0508C6F8F4
:1011E00000804D68ED0070D53E4DAE6946F00106B9
:1011F000AE61AD6924F0030605F0010500953A4D96
:1012000006EB050CDCF80850A607360F07FA06F8BF
:1012100025EA0805DFF8D480404503D14FF00008E7
:1012200025E052E0DFF8C880404502D14FF00108C8
:101230001DE0DFF8C080404502D14FF0020816E003
:10124000DFF8B480404502D14FF003080FE0DFF82B
:10125000AC80404502D14FF0040808E0DFF8A080E0
:10126000404502D14FF0050801E04FF0060808FAAA
:1012700006F848EA0508CCF808804D68D9F80060FF
:10128000ED024D4601D5164300E096432E604D68B1
:10129000DAF80060AD02554601D5164300E09643EA
:1012A0002E604D68DBF80060AD035D4601D5164346
:1012B00000E096432E604D68DEF80060ED03754651
:1012C00001D5164300E096432E60641C0A6816465A
:1012D000E2407FF429AFBDE8F88F00000804014028
:1012E0000000111000100240000001400008014001
:1012F000000C0140001001400014014000180140A2
:10130000001C01408068084000D001207047C2687E
:1013100021EA02030A4043EA0241016170470AB12F
:10132000016170470904FBE70148806870470000CD
:10133000080000200148006870470000E8F7FF1F20
:101340000148006870470000ECF7FF1F0148006883
:1013500070470000F0F7FF1F0248816802781144CF
:101360008160704708000020074810B5016841F00F
:1013700010010160032000F08FF8002000F006F853
:1013800000F03EF8002010BD0020024000B50146EC
:1013900087B00022362000F05FF8362000F04EF8CB
:1013A0001348C16941F01001C161C06905A900F08D
:1013B00010000690684600F017F900F035F90D4965
:1013C0004000B0FBF1F10D480B4A491E026041603C
:1013D00040F2E7320021C0E90321816000F0B5FD51
:1013E00010B1012007B000BD044800F0DDFDF9E7B1
:1013F0000010024040420F00001000401405002081
:101400000C4808B5816941F001018161816901F0F1
:1014100001010091C16941F08051C161C06900F0D2
:10142000805000900448416821F0E06141F0007173
:10143000416008BD0010024000000140002809DBA7
:1014400000F01F02012191404009800000F1E020DE
:10145000C0F8001170470000F0B40E4B1B680C463A
:10146000C3F30223C3F10705042D00D90425191D78
:10147000072901D2002300E0DB1E012606FA05F150
:10148000491E214099409E40761E16403143F0BCD3
:1014900002F0CBB90CED00E0064900F00702086845
:1014A0004FF6FF03184040EA0220034A1043086049
:1014B000704700000CED00E00000FA052DE9F04750
:1014C0000F46050061D0434E306800F00700B84277
:1014D00009D2306820F0070038433060306800F0EF
:1014E0000700B84251D128683B4C810712D540070C
:1014F00003D5606840F4E06060602878000703D599
:10150000606840F4605060606068A96820F0F00096
:10151000084360602878C00728D06868012810D088
:101520002168022810D0890700292EDA616821F08D
:10153000030101436160FFF7F7FE804641F28839FD
:101540000DE021688903EFE78901EDE7FFF7ECFE85
:10155000A0EB0801494502D90320BDE8F087606887
:10156000696800F00C00B0EB810FEFD1306800F03B
:101570000700B8420BD9306820F0070038433060CC
:10158000306800F00700B84201D00120E5E7287874
:10159000400705D56068E96820F4E06008436060B2
:1015A0002878000706D56068296920F4605040EA71
:1015B000C100606000F058F86168084AC1F3031187
:1015C000515CC8400649086006480068FFF7DEFE27
:1015D0000020C2E70020024000100240D481000831
:1015E000140000200C0000200F2202600C4A5368F7
:1015F00003F003034360536803F0F0038360536810
:1016000003F4E063C36052684FF4E06303EAD2027C
:1016100002610448006800F007000860704700009D
:101620000010024000200240044805490068496853
:10163000044AC1F30221515CC840704714000020E5
:1016400000100240E4810008044805490068496828
:10165000044AC1F3C221515CC84070471400002005
:1016600000100240E48100080E4A51680E4801F063
:101670000C03042B11D0082B0FD10C48C1F383436A
:10168000C903C05C0AD55168084AC1F34041921EA3
:10169000515C054A5043B0FBF1F0704704494843A0
:1016A000704700000010024000127A00C481000858
:1016B00000093D002DE9F84F040070D02078C04D9E
:1016C000C00749D06868C0F38100012807D0686866
:1016D000C0F38100022809D16868C00306D52868D4
:1016E000800339D560680028E7D035E06068B0F540
:1016F000803F0BD010B1B0F5A02F11D0286820F496
:1017000080302860286820F4802002E0286840F4B7
:1017100080302860606890B1FFF706FE06460AE058
:10172000286840F480202860F0E700BFFFF7FCFD48
:10173000801B642873D828688003F7D50CE0FFF776
:10174000F3FD064605E000BFFFF7EEFD801B6428B1
:10175000F0D828688003F7D420789A4E80074FF09D
:1017600001094FF0000839D5686810F00C0F07D058
:101770006868C0F38100022809D16868C00306D4F4
:101780002868800714D52069012808D110E0206955
:10179000B0B1C6F80090FFF7C7FD074605E00AE1C3
:1017A000FFF7C2FDC01B0228C4D828688007F7D500
:1017B0002868616920F0F80040EAC10028600DE067
:1017C000C6F80080FFF7B0FD074604E0FFF7ACFD68
:1017D000C01B022823D828688007F7D42078000788
:1017E0002CD57948A169D9B1C0F80090FFF79CFDCC
:1017F000074604E0FFF798FDC01B02280FD8686A6F
:101800008007F7D571484FF4FA510068B0FBF1F04A
:10181000009000BF0098411E0091FAD20EE080E0D7
:10182000C0F80080FFF780FD074604E0FFF77CFD6D
:10183000C01B022875D8686A8007F7D42078400753
:1018400060D5E8690027C00008D4E86940F08050FE
:10185000E861E869012700F0805000905C48016869
:10186000C90513D40168834641F480710160FFF714
:101870005BFD824606E000BFFFF756FDA0EB0A00C5
:1018800064284ED8DBF80000C005F5D5E0680128D3
:101890000AD008B1052813D0286A20F00100286278
:1018A000286A20F0040002E0286A40F00100286263
:1018B000E06841F2883B98B1FFF736FD82460BE0C5
:1018C000286A40F004002862EEE700BFFFF72CFD15
:1018D000A0EB0A0159455AD8286A8007F6D50CE0D2
:1018E000FFF722FD824605E0FFF71EFDA0EB0A018F
:1018F00059454CD8286A8007F6D41FB1E86920F012
:101900008050E861E06988B36968C1F38101022908
:1019100044D00228C6F8608004D0FFF705FD0446D5
:1019200038E034E0FFF700FD074604E0FFF7FCFC79
:10193000C01B02282BD828688001F7D4206AB0F594
:10194000803F05D16868A16820F4003008436860D2
:10195000D4E908010843696821F4741108436860F8
:10196000C6F86090FFF7E0FC044606E025E000BF03
:10197000FFF7DAFC001B022809D828688001F7D598
:101980001BE000BFFFF7D0FC001B022802D9032098
:10199000BDE8F88F28688001F4D40EE00128F7D064
:1019A0006868226A00F48031914204D1616A00F4CF
:1019B0007010884201D00120EAE70020E8E700002B
:1019C0000010024000004242800442421400002005
:1019D00000700040704790F85100704738B50446D9
:1019E000006842688168C9434B0606D5CB0704D11D
:1019F000D3435B0601D4216C05E08B0708D4D343A5
:101A00001B0605D4616C01B02046BDE83040084794
:101A10008B0601D54B0646D4D3439B0643D44B06D5
:101A20000AD494F85130032B3ED0636D43F0040385
:101A30006365C36883680093890609D4616D41F0CA
:101A40000101616581680091016821F04001016038
:101A5000606D002827D02068416821F0E0014160D6
:101A6000012084F85100900722D02068416821F0BD
:101A700003014160104DE06C40B14563E06CFFF73D
:101A80009FFA18B1606D40F040006065A06C0028BE
:101A900009D04563A06CFFF793FA002803D0606D6E
:101AA00040F04000606538BDC1688068009038BD76
:101AB0002046FFF78FFF38BD2129000870B50400CC
:101AC00009D0606A002540B125616561A56294F87E
:101AD000510040B10CE0012070BD6068B0F5827F1C
:101AE000F4D0E561F2E784F85050204600F040F869
:101AF000022084F851002068016821F04001016053
:101B0000A088218900F4827001F404410843A1896E
:101B100001F400610843217C01F002010843217DAA
:101B200001F001010843218B01F400710843217F7A
:101B300001F03801084394F8201001F080010843B7
:101B4000218D01F40051084321680860A069042137
:101B500001EA1040216848602068C16921F40061F1
:101B6000C1616565012084F85100002070BD00004E
:101B700030B585B000240094019402940394006869
:101B8000184988422BD11848816941F480518161FC
:101B9000816901F480510491816941F004018161FE
:101BA0008069124D00F004000490A02000900220F3
:101BB00001900320039069462846FFF7A7FA4020CA
:101BC000CDE90004694628460294FFF79FFA0022F7
:101BD00001212320FFF740FC2320FFF72FFC05B055
:101BE00030BD0000003001400010024000080140FC
:101BF0002DE9F84F984616468A460446FFF794FBAF
:101C0000814694F8510001281ED1BAF1000F73D01B
:101C1000002E71D094F85000012815D0012784F8C7
:101C20005070032084F8510000256565C4F830A089
:101C3000A686E686A563A587E58765642564A06812
:101C4000B0F5004F03D00CE00220BDE8F88F20680B
:101C5000016821F0400101602068016841F4804181
:101C6000016020680168490603D4016841F0400121
:101C70000160E068B0F5006F606803D048B3012EE2
:101C800027D047E008B1012E1FD1206B21680088C2
:101C9000C86006E020688168890709D5216B09883A
:101CA000C160206B801C2063E08E401EE0860CE04B
:101CB000FFF73AFBA0EB0901414503D3B8F1FF3F21
:101CC00003D035E0B8F1000F32D0E08E0028E1D12A
:101CD00023E0206B21680078087306E020688168A3
:101CE00089070AD5216B09780173206B401C20639A
:101CF000E08E401EE0860DE02BE0FFF715FBA0EB29
:101D00000901414503D3B8F1FF3F03D010E0B8F11A
:101D1000000F0DD0E08E0028E0D14A464146204613
:101D200000F006FE08B120206065A06830B109E02F
:101D300084F8517084F85050032086E72068C16809
:101D40008068009084F8517004F8505F6068002843
:101D5000F3D0012079E72DE9FF4F81B01D4693466E
:101D600004464FF001090E9EFFF7DEFA074694F88D
:101D700051006168012806D0B1F5827F3CD1A1688D
:101D8000C9BB042838D10298002871D0BBF1000FDC
:101D9000FBD0002DF9D094F8500001282CD04FF042
:101DA000010A84F850A094F85100042802D00520BC
:101DB00084F851004FF00008C4F85480C4F838B0DB
:101DC000E587A58702992163E586A586C4F840804A
:101DD000C4F8448020680168490603D4016841F0D2
:101DE00040010160E068B0F5006F606808D0F0B3B2
:101DF000012D49D081E0FFE7022005B0BDE8F08F5A
:101E000008B1012D39D1206B21680088C860206B92
:101E1000801C2063E08E401EE0862EE020688168F2
:101E200089070FD5E18E69B1B9F1010F0AD1216B94
:101E30000988C160206B801C2063E08E401EE08614
:101E40004FF0000920688168C9070CD0E18F51B1BB
:101E5000C068A16B0880A06B801CA063E08F401E4F
:101E6000E0874FF00109FFF75FFAC01B01E00BE0CC
:101E700067E0B04201D3701C50D1E08E0028CDD174
:101E8000E08F0028CAD13EE0206B216800780873FB
:101E9000206B401C2063E08E401EE0862DE0206811
:101EA000816889070FD5E18E69B1B9F1010F0AD1B7
:101EB000216B09780173206B401C2063E08E401E6B
:101EC000E0864FF0000920688168C9070CD0E18FD7
:101ED00051B1C068A16B0870A06B401CA063E08F7B
:101EE000401EE0874FF00109FFF71EFAC01BB04209
:101EF00002D3701C01D011E086B1E08E0028CED153
:101F0000E08F0028CBD13A463146204600F010FD44
:101F100050B12020606584F8508012E084F851A010
:101F200084F85080032068E7A06818B92068C16869
:101F30008068009084F851A084F85080606D00287B
:101F4000F1D0012059E77047704710B5040003D065
:101F500094F83D0010B107E0012010BD002084F886
:101F60003C00204600F01EF8022084F83D00211DB0
:101F7000206801F07DFA012084F8460084F83E00D4
:101F800084F83F0084F8400084F8410084F842005F
:101F900084F8430084F8440084F8450084F83D0048
:101FA000002010BD7047000090F83D10012901D0BD
:101FB00001207047022180F83D100168CA6842F094
:101FC0000102CA6000680E4988420ED00D4988425D
:101FD0000BD0B0F1804F08D00B49884205D00B4997
:101FE000884202D00A49884204D1816801F0070181
:101FF000062903D0016841F001010160002070470B
:10200000002C014000340140000400400008004062
:10201000000C004070472DE9F04104460068C66896
:1020200005694FF00007A90713D5B10711D5F91EAF
:10203000016101202077206880698007204602D056
:10204000FFF7E8FF04E000F07EF8204600F07CF89F
:102050002777680716D5700714D521686FF004003C
:102060000861022020772068806910F4407F2046B4
:1020700002D0FFF7CFFF04E000F065F8204600F043
:1020800063F82777280715D5300713D521686FF037
:1020900008000861042020772068C0698007204676
:1020A00002D0FFF7B7FF04E000F04DF8204600F043
:1020B0004BF82777E80616D5F00614D521686FF09F
:1020C00010000861082020772068C06910F4407F64
:1020D000204602D0FFF79EFF04E000F034F82046CF
:1020E00000F032F82777E80708D0F00706D021681B
:1020F0006FF001000861204600F028F8280608D596
:10210000300606D521686FF0800008612046FFF791
:102110001AFF680608D5700606D521686FF04000E2
:102120000861204600F01CF8A8060AD5B00608D5BC
:1021300021686FF0200008612046BDE8F041FFF7FC
:1021400003BFBDE8F0817047704700000068034995
:10215000884201D1FFF700B970470000001000402D
:102160007047704770470000F8B50168044608687A
:10217000CA684B6910F00F0F4FF0000559D003F0FB
:10218000010602F49077374365D0C10705D0D10529
:1021900003D5616C41F001016164410705D5D907A0
:1021A00003D0616C41F002016164810705D5D90754
:1021B00003D0616C41F004016164010707D502F0AE
:1021C0002001314303D0616C41F008016164616C0E
:1021D00000293AD0800604D5900602D5204601F0A9
:1021E000C4F920684069616CC0F38010090700D40D
:1021F00060B3204601F092F920684069400621D57D
:102200002068143050E8001F21F0400140E800121F
:10221000002AF5D1E06BA8B16D494163E06BFEF790
:10222000CFFE002811D0E06B416B01B0BDE8F0405B
:10223000084783060FD593060DD52046BDE8F84024
:1022400001F093B92046FFF78DFFF8BD2046FFF758
:1022500089FF6564F8BD266B2023012E7CD1C6065C
:102260007AD5D60678D508684868009048694FF056
:102270000206400640D5E16B086840680004000C87
:10228000E8D0A28D8242E5D9E085886920282DD04A
:1022900020680C3050E8001F21F4807140E80012E3
:1022A000002AF5D12068143050E8001F21F0010108
:1022B00040E80012002AF5D12068143050E8001FD1
:1022C00021F0400140E80012002AF5D184F84230A4
:1022D000256320680C3050E8001F21F0100140E811
:1022E0000012002AF5D1E06BFEF747FE6663A08D71
:1022F000E18D401A81B22AE0A08DE18D401A81B2B1
:10230000E08D0028A6D00029A4D022680C3252E823
:10231000000F20F4907042E80007002FF5D12068EC
:10232000143050E8002F22F0010240E80027002F6F
:10233000F5D184F84230256320680C3050E8002F36
:1023400022F0100240E80023002BF5D166632046FE
:10235000FFF707FFF8BDFFE705062BD5150629D5C2
:1023600094F841002128F5D1A068B0F5805F01D133
:102370002069B0B1206A411C216221680078486060
:10238000E08C401E0004000CE084E3D12068C168AA
:1023900021F08001C1602068C16841F04001C16046
:1023A000D8E7206A0088C0F308004860206A801CD3
:1023B0002062E5E74006CDD55006CBD5CA68204659
:1023C00022F04002CA6084F8413000F0C6F8C1E74C
:1023D0000D35000870B5040004D094F841000025C4
:1023E00010B106E0012070BD84F84050204600F096
:1023F00023F8242084F841002068C16821F40051AA
:10240000C160204601F012F92068016921F4904171
:1024100001612068416921F02A0141612068C16899
:1024200041F40051C1606564202084F8410084F8C3
:1024300042006563002070BD30B585B00024009473
:102440000194029403940068184988422CD11848DA
:10245000816941F480418161816901F48041049185
:10246000816941F0040181618069124D00F004002E
:1024700004904FF40070009002200190032003901C
:1024800069462846FEF742FE2815CDE90004694654
:1024900028460294FEF73AFE002203212520FEF78B
:1024A000DBFF2520FEF7CAFF05B030BD0038014034
:1024B000001002400008014070472DE9F84304462F
:1024C00090F84100984616460D46202802D002207A
:1024D000BDE8F88385B17EB100206064212084F8D6
:1024E0004100FEF721FFA6848146E684A0682027EC
:1024F000B0F5805F02D003E00120E9E7206910B168
:102500002E4600250EE000260CE08021204601F03A
:10251000E9F8A8B9C6B116F8010B21684860E08C4B
:10252000401EE084E08C4B464FF00002CDF8008066
:102530000028EAD14FF04001204601F0D3F840B125
:1025400084F841700320C3E735F8020BC0F308009C
:10255000E3E784F841700020BAE7704710B500F057
:1025600021F84B2201464B2804DD03A004F07AFB3E
:10257000012010BD002010BD5B43534D415D204242
:10258000757379212043757272525353493A20254D
:1025900064203E205468726573686F6C643A20252D
:1025A000640A00001B21014800F053BB8005002095
:1025B00010B586B01FA004F055FB2548234904221E
:1025C000C0E902211022C0E9042141600821016014
:1025D0002049816100F1200107220860002040218C
:1025E000CDE90220CDE9040103210120CDE900015C
:1025F0001748194A0023203000F069FC1448422192
:10260000203000F026FB0446014614A004F02AFB0B
:10261000122C06D01DA004F025FB4FF0FF3006B0B1
:1026200010BD002124A004F022FC264908600020EF
:10263000F5E700005374617274696E67204C6F5245
:102640006120496E69742E2E2E0A00000008014098
:102650006005002074040020400ECF194C6F5261B9
:1026600020436865636B3A205265675665727369EB
:102670006F6E203D20307825303258202845787004
:102680006563742030783132290A00004C6F526142
:10269000204572726F723A20486172647761726588
:1026A00020636F6E6E656374696F6E206661696C1E
:1026B0006564210A000000006C6F72615F6D7478C0
:1026C00000000000180000202DE9F041144C0746DE
:1026D0000E46206818B14FF0FF3104F02FFC394648
:1026E00010A004F0BFFA4FF4FA652B463246394683
:1026F000114800F030FC01280ED010A004F0B2FA0E
:102700002A4640210C4800F08AF92068002805D0AC
:10271000BDE8F04104F0C0BB0FA0EFE7BDE8F081D9
:10272000180000204C6F52612053656E64696E671B
:102730003A2025730A000000800500204C6F52618A
:10274000205458204661696C6564206F722054697A
:102750006D656F75742E0A004C6F526120545820BD
:10276000446F6E652E0A00002DE9F04F85B00024FD
:1027700041480094019402940394816941F040011E
:102780008161816901F040010491816941F0040196
:102790008161816901F004010491816941F01001B6
:1027A0008161816901F010010491816941F00801A2
:1027B00081618069DFF8C49000F008000490002275
:1027C00020214846FEF7ABFDDFF8B4A00122182116
:1027D0005046FEF7A4FDDFF8ACB04FF4707800224D
:1027E00041465846FEF79BFD002220212648FEF771
:1027F00096FD20270226012500970396CDE9015476
:1028000069464846FEF782FC042000901F48CDE947
:10281000010669465046FEF779FC0820CDE900051F
:10282000CDE9024669465046FEF770FC1020CDE91E
:1028300000050320CDE9024069465046FEF766FCDC
:10284000CDF800800396CDE9015469465846FEF75D
:102850005DFC00970396CDE9015469460A48FEF7EE
:1028600055FC002202210820FEF7F6FD0820FEF7A5
:10287000E5FD05B0BDE8F08F0010024000180140F2
:102880000008014000100140000C01400000111040
:10289000104810B50E4901604FF48271416000216B
:1028A0008160C1604FF400720161C0E90512182215
:1028B000C0E90721416281620A21C162FFF7FEF887
:1028C000002803D0BDE81040FEF745BB10BD000056
:1028D00000300140740400200C4810B50A49016022
:1028E0004FF4E1314160002181600C22C160C0E9F8
:1028F00004128161C161FFF76DFD002803D0BDE8BE
:102900001040FEF728BB10BD00380140CC04002069
:10291000FEE7FEE70148FFF761B8000074040020FD
:1029200010B5406A0021C187C186FFF753F810BD7A
:10293000F8B515460E460B460092044601220221C8
:1029400000F010F840B9334600228021204600955F
:1029500000F008F8002804D0606D40F020006065A9
:102960000320F8BD2DE9F8431E46914688460446EB
:10297000089DFEF7D9FC401B351AFEF7D5FC07462B
:1029800025480068C0F3CB30684338E0701C37D06E
:10299000FEF7CAFCC01BA84203D215B1009860B371
:1029A0002CE02068416821F0E00141606068B0F5EA
:1029B000827F0BD1A068B0F5004F02D0B0F5806FD8
:1029C00004D12068016821F040010160A06AB0F5DF
:1029D000005F09D12068016821F40051016020687E
:1029E000016841F400510160012084F85100002089
:1029F00084F850000320BDE8F8830025401E0090B5
:102A00002068816838EA010004D000214945BDD121
:102A10000020F0E70121F9E714000020704770B5AD
:102A20000D460446417500F041F984224D212046AF
:102A300000F01EF9FF222421204600F019F901229E
:102A40004021204600F014F93F221121204600F0D9
:102A50000FF9204600F025F92A462221204600F0F1
:102A600007F90F21204600F0F4F802460D21204618
:102A700000F0FEF88D220121204600F0F9F8002038
:102A800084F817010320A075012070BD70B51646AB
:102A90000C460546417500F009F987224D2128466C
:102AA00000F0E6F800222421284600F0E1F8412257
:102AB0004021284600F0DCF8284600F0F2F8F72222
:102AC0001121284600F0D4F822462221284600F0A1
:102AD000CFF80E21284600F0BCF802460D2128460A
:102AE00000F0C6F82221284600F0B3F8A04203D136
:102AF0000220A875012070BD761EF3D1286800F071
:102B000089F9284600F0D2F8002070BD70B504465F
:102B1000006800F075F908B304F117004FF48071F4
:102B20000646FDF70AFC1021204600F092F8024606
:102B30000D21204600F09CF8607C90B113212046C6
:102B400000F087F805462B4632460021204600F06B
:102B50003CF884F81751204600F0A3F894F81701C8
:102B600070BD657DEFE770B51D4613460A46044605
:102B7000002100F04BF88B220121204600F078F86C
:102B8000206800F03DF958B11221204600F061F8AC
:102B9000204600F086F8204600F0D4F9012070BDF0
:102BA0006D1E03D0012000F029F9E9E7206800F04C
:102BB00031F9204600F07AF8002070BD10B51B21D5
:102BC00000F047F80A38C0B210BD2DE9F0411E46AA
:102BD00017460C460546012B16D90021286800F03F
:102BE0005FF92146286800F02DF9002404E000F088
:102BF0003BF93855641CE4B22868B442F7D3BDE809
:102C0000F041012100F04CB9BDE8F0812DE9F0411F
:102C10001E4617460C460546012B18D90021286888
:102C200000F03EF944F08001286800F00BF9002420
:102C300005E0395D286800F005F9641CE4B2B4428F
:102C4000F7D32868BDE8F041012100F029B9BDE8BB
:102C5000F08170B50446006800F0F4F8206800F0D8
:102C600003F905460121206800F01AF9284670BDD5
:102C700070B50D46044616460068002100F010F9B4
:102C800045F08001206800F0DDF83146206800F052
:102C9000D9F82068BDE87040012100F001B9FFF7C4
:102CA00035BFFF221221FFF7E3BF0000F8B504464D
:102CB00000F03FF90F2000F0A1F8204600F09AF84C
:102CC000A189A068C90441EA5031C004474A0023E1
:102CD000FDF7C6FA020C42EA01428DF800200A060E
:102CE00042EA10218DF801108DF8020003236A4694
:102CF00006212046FFF78AFF122239212046FFF7DE
:102D0000B7FF207C3A490A5C09212046FFF7B0FF53
:102D10000B2211462046FFF7ABFF23220C21204651
:102D2000FFF7A6FF324D607C0835E91D2A5C281F9D
:102D3000861F062AA27C895CE27C4FEA0111805C36
:102D400001EB400030D0C2B21D212046FFF790FFBA
:102D5000607C217D285C715C000100EB8100C2B2C7
:102D60001E212046FFF784FF042226212046FFF77C
:102D70007FFF08221F212046FFF77AFF0022202133
:102D80002046FFF775FF082221212046FFF770FF3C
:102D9000012241212046FFF76BFF002084F8170134
:102DA000204600F0CFF8F8BD401CC2B21D212046DD
:102DB000FFF75EFF607C217D285C715C000100EB09
:102DC0008100C01CC2B21E212046FFF751FF3121F5
:102DD0002046FFF73EFF00F0F80040F005023121E9
:102DE0002046FFF745FF0C223721BAE70048E801EB
:102DF000FC81000888220121FFF73ABF04F0C0BC23
:102E000010B50189C06889B2FEF77CFA012800D0AC
:102E1000002010BD10B50446012100F041F82088C3
:102E2000002281B26068FEF77AFA0120FFF7E6FF20
:102E30002088012281B26068FEF771FA6420FFF7F2
:102E4000DDFF10BD13B50446002100F029F84FF452
:102E50007A73012201A9A069FEF7CAFEA069FEF7F4
:102E6000BAFD0128FAD11CBD3EB5044600208DF8FC
:102E700008008DF804000146204600F011F84FF4D8
:102E80007A700090012301AA02A9A069FEF763FFEE
:102E9000A069FEF7A0FD0128FAD19DF804003EBD0F
:102EA000012905D00022018A406989B2FEF737BAAC
:102EB0000122F8E710B504460121FFF7F1FF208851
:102EC000012281B26068BDE81040FEF728BA2DE902
:102ED000F05F04460AA8154690E8800F1E46206859
:102EE000FFF7E8FFC4E90256277484F8118084F8DC
:102EF000129084F813A084F814B00F9860752046DF
:102F0000BDE8F05FFFF7D2BE70B5054690F8170137
:102F100014460E46A04200D00446224605F1170191
:102F20003046FDF7F1F90020305585F817012046AD
:102F300070BD10B5044608220121FFF799FE00205C
:102F4000A07510BD10B5044609220121FFF790FEBF
:102F50000120A07510BD2DE9F04115460E461C4616
:102F600007461A462946FFF791FD002807D0234659
:102F70002A4631463846BDE8F041FFF7F4BDBDE8CA
:102F8000F0810000F0B5394891B00024016838485C
:102F90000068FDF774FA054610F1FF4F01D380F089
:102FA00000453448854201DD012700E00027AB20C1
:102FB0008DF8000002208DF801002F4840788DF830
:102FC000020000208DF8030006208DF80500FEF7B2
:102FD000B1F90646FEF7B4F94640FEF7B7F94640A8
:102FE000CDF806608DF80A702846FDF75EFB8DF877
:102FF0000B00314621A003F035FE0C25142004F00F
:10300000BFFB4FF4487600BFFFF7A8FA002816D0A0
:103010002148FFF7D3FD014620A003F023FE3146EF
:103020006420FDF79AFF04F0ABFB641CE4B2032CB0
:10303000EAD3032125A003F015FE11B0F0BD611CF9
:1030400032A003F00FFE4FF4FA64224629461248DC
:10305000FFF71CFD23462A4669460F48FFF783FD0C
:10306000224640210C48FFF7DAFCE6E70400002086
:103070000000002000004040880300204D792048D7
:1030800061726477617265205549442069733A2002
:103090003078253038580A00800500205B43534DB6
:1030A000415D204368616E6E656C204275737920C6
:1030B00028525353493A2564292E204261636B6993
:1030C0006E67206F66662E2E2E0A00005B43534DFE
:1030D000415D204661696C656420746F2073656E84
:1030E00064204A4F494E2061667465722025642031
:1030F000726574726965732E2057616974206E65FC
:10310000787420426561636F6E2E0A005B43534DF5
:10311000415D204368616E6E656C20467265652E68
:103120002053656E64696E67204A4F494E202854CB
:103130007279202564292E2E2E0A0000F0B5A1B048
:10314000AB208DF80000544C04208DF8010060780D
:103150008DF8020000208DF803009DF804004FF068
:103160007C51401C8DF8040011208DF80500A068EA
:10317000FDF733F94949A060884201DD4848A06065
:103180000546CDF806004748CDF80E004648CDF874
:103190000A004648CDF8120001208DF816001726C7
:1031A0002846FDF769FA0746FDF75DFA2946FDF75F
:1031B00069F93F49FDF769F9FDF75EFA03463A46BA
:1031C000A1783CA003F04EFD4FF4FA652A46314643
:1031D0004548FFF75BFC2B46324669464248FFF7FD
:1031E000C2FC42A003F03EFD2A4640213E48FFF7C4
:1031F00016FC04F0A3FB0646AF103DE03A48FFF78B
:103200004EFD002835D0402210A93748FFF77CFE3C
:10321000002829DD9DF84000AB2825D19DF841000C
:10322000052821D19DF84300617888421CD1DDF842
:103230004700FDF74EFA9DF8464002460B462146F0
:1032400035A003F00FFD9DF84600012819D13D4837
:10325000DDF8471001600068FDF73BFA02460B46B7
:1032600039A003F0FFFC0CE02A4640211E48FFF77E
:10327000D6FB052004F084FA04F060FB801BB84202
:10328000BCD33AA003F0EEFC2A4640211648FFF7D3
:10329000C6FB21B0F0BD00008803002000002042E2
:1032A0000000A041000070420000C8410000C84278
:1032B000000020415B4E4F44455D2053656E6469BC
:1032C0006E67204461746120696E20536C6F7420B6
:1032D00025642E2E2E2054656D703A2025642E25EF
:1032E0006420430A00000000800500205B4E4F442C
:1032F000455D20446174612053656E742E205761D2
:103300006974696E6720666F722041434B2F434D8D
:10331000442E2E2E0A0000003E3E3E205B435452B7
:103320004C5D205265637620436F6D6D616E642144
:1033300020547970653A25642C2056616C3A252E0C
:1033400031660A001C000020202020202D3E205540
:103350007064617465205461726765742054656D92
:103360007020746F20252E31660A00005B4E4F449A
:10337000455D2052582057696E646F7720436C6F0B
:103380007365642E0A00000010B503F01DFC04F004
:10339000DBFABDE8104003F025BC30B58FB0282122
:1033A0006846FCF7CAFF14210AA8FCF7C6FF0121F2
:1033B0000804CDE900100024029402250491CDE90F
:1033C00007504FF4E01009906846FEF773F908B112
:1033D00072B6FEE70F20CDE90A054FF48060CDE913
:1033E0000C4002210AA80E94FEF768F8002801D0CC
:1033F00072B6FEE70FB030BD144910B54868144AE4
:1034000010F00C03134803D0042B01D0082B09D073
:1034100002604968104AC1F30311515C0268CA4056
:10342000026010BD4A684B6802F470124FF002044B
:1034300013F4803F04EB924202D04B689B0301D50A
:10344000064B00E0024B5A43E2E700000010024046
:1034500000127A0014000020D481000800093D0009
:10346000704700000148FEF7D6BD0000140500209B
:10347000F0B50268204C214D214E224F224B4FF0D7
:10348000804CA04209D0984207D0604505D0A842A0
:1034900003D0B04201D0B84204D122F0700E4A6885
:1034A00042EA0E02A04209D0984207D0604505D0FA
:1034B000A84203D0B04201D0B84203D122F44075F3
:1034C000CA682A434D6922F080022A4302608A6852
:1034D000C2620A688262A04201D0984201D10969A1
:1034E0000163012141610169C90703D0016921F02C
:1034F00001010161F0BD0000002C0140000400400A
:1035000000080040000C00400034014010B5406A43
:103510000021C185C184FEF725FE10BD01680C3174
:1035200051E8002F22F4907241E80023002BF5D1DE
:103530000168143151E8002F22F0010241E8002314
:10354000002BF5D1016B012909D101680C3151E83B
:10355000002F22F0100241E80023002BF5D120219A
:1035600080F8421000210163704708B590F84210BE
:10357000222901D0022008BD82684FF480539A426C
:1035800001D1016921B1816A9A421BD04AB10AE096
:103590000268816A5268C2F308020A80816A891C43
:1035A00008E0026972B10268526802F07F020A7094
:1035B000816A491C8162C18D491E0904090CC185BB
:1035C00003D01BE002685268F1E70168CA6822F084
:1035D0002002CA600168CA6822F48072CA60016869
:1035E0004A6922F001024A61202180F8421000213C
:1035F0004163026B012A03D0FEF75EFF002008BD85
:10360000016301680C3151E8002F22F0100241E8FB
:103610000023002BF5D101680A68D20602D50A689A
:1036200049680091818DFEF79CFDE7E770B504467F
:1036300000680169E26821F4405111430161216988
:10364000A0680843616908432168CA6841F20C63B5
:103650009A430243CA6020684169A26921F440711B
:10366000114341611E492068884202D1FDF7ECFFF9
:1036700001E0FDF7D9FF00EBC00101EB001260682B
:1036800064218000B2FBF0F3B3FBF1F36FF0180696
:103690007343B2FBF0F5B2FBF0F605EB8305322382
:1036A00003EB0515B5FBF1F5B6FBF1F605F0F005FA
:1036B00005EB0615B2FBF0F6B2FBF0F0B0FBF1F053
:1036C0006FF01802504306EB800003EB0010B0FBD4
:1036D000F1F0216800F00F002844886070BD000000
:1036E000003801402DE9F843984617460D46044638
:1036F000089E24E0701C22D0FDF716FEA0EB080007
:10370000B0421AD8CEB12068C168490717D5802DBC
:1037100015D0402D13D00168C94309070FD40168A3
:103720000025406800902046FFF7F8FE08206064FE
:1037300084F840500120BDE8F8830320FBE72068AF
:10374000006835EA000004D00020B842D2D0002042
:10375000F1E70120F9E700000148FEF705BD000090
:10376000CC040020FEE700001CB50A210F20CDE9A3
:1037700000014FF400630022064907A003F0FAFE9F
:1037800018B104F049F807A000E00EA0BDE81C4005
:1037900003F068BA4D5000086C6F72615F6E6F6421
:1037A000650000005B4D61696E5D204C6F526120C9
:1037B0004E6F64652041707020537461727465644B
:1037C0002E0A00005B4D61696E5D204572726F725A
:1037D0003A204C6F5261204E6F64652054687265C8
:1037E000616420437265617465204661696C65643B
:1037F000210A0000014A024900F0D4B85B420008E7
:10380000640400204100080218BF04200A0E18BFFB
:1038100040F001004FF07F4232EA010108BF40F062
:103820000200012808BF052070470907090E00287B
:1038300004DB00F1E02080F80014704700F00F0076
:1038400000F1E02080F8141D704700214FF07E50F9
:10385000FCF74DBE0121FCF788BEFCF7BEBD002180
:103860000846FCF744BE61214FF0E040FCF77DBE06
:103870006FF05E010807FCF778BE000001480068A1
:103880007047000070040020002806D00E4910F098
:10389000FF0F03D0C0B2085C401C704710F47F4F8C
:1038A00004D0C0F30720085C0930704710F47F0F84
:1038B00004D0C0F30740085C1130704701EB106082
:1038C00000781930704700003582000802E008C80F
:1038D000121F08C1002AFAD170477047002001E08A
:1038E00001C1121F002AFBD1704700000149086086
:1038F000704700007004002030380A2801D20120EF
:1039000070470020704700002DE9F04F89B09246C3
:103910008B460646002400E0641C305D202803D05E
:10392000092801D05C45F7D34FF0FF387CB3194824
:1039300004F10609184F056811E0062217A128684E
:10394000FCF73CFD50B9286822463146801DFCF743
:1039500035FD18B9296811F8090020B10C3538680F
:103960008542EAD314E0AC688CB120216846FCF7AC
:10397000E4FC6A465946304602F070F838B16946B0
:10398000A047CAF80000002009B0BDE8F08FFFE7AB
:103990004046F9E7A8030020AC0300205F5F636D99
:1039A000645F00002DE9F04116460F4604460025ED
:1039B00003E03946B047641C6D1C20780028F8D11C
:1039C0002846BDE8F08100002DE9FC411F46044671
:1039D000DDE90831DDE90A65143040600060C4E9C2
:1039E0000827C4E90A310A46232118461C3403F08B
:1039F0001BFAD4E903014218D4E90101104B121F4C
:103A000003F0C6F844F81A0B002004F801690D4AC7
:103A100004F8036BE4E8020544F8105901C404F803
:103A20003C0B01C444F874090090234601901946E8
:103A300004F1440004F01CF80020BDE8FC81000003
:103A4000697600088778000810B5029C24F001040C
:103A50004472C0E907120021C0E909311430406006
:103A6000006010BD143003F044B970B50546FCF792
:103A70007DFB296F044609B1284688472046BDE8EA
:103A80007040FCF777BB10B5012A05D0022A07D099
:103A9000BDE8104000F0C0BBBDE81040FCF7F5BC2D
:103AA000FCF79BFC4FF07E51FCF7E9FC0146BDE8BA
:103AB0001040002000F09CBB30B583B00446FFF7F7
:103AC000DDFE05460020CDE900000246214668469D
:103AD000FCF76DFE2846FFF709FFDDE9000103B0A2
:103AE00030BD000010B51BA003F0BCF81C4C2178C1
:103AF0001CA003F0B7F82078C00702D01FA003F085
:103B0000B1F82078800702D51FA003F0ABF8207829
:103B1000400702D51FA003F0A5F82078000702D5C2
:103B200020A003F09FF82078C00602D520A003F063
:103B300099F82078000607D509480F300168BDE8DC
:103B400010401DA003F08EB8BDE810401EA003F089
:103B500089B80000627573206661756C743A0A005A
:103B600029ED00E05343425F434653525F424653C0
:103B7000523A3078253032582000000049425553DF
:103B800045525220000000005052454349534552CF
:103B900052200000494D505245434953455252204E
:103BA00000000000554E53544B4552522000000077
:103BB00053544B45525220005343422D3E424641FE
:103BC000523A253038580A000A00000010B500F0BB
:103BD00047FF002010BD10B501F082F8002010BD95
:103BE00010B50446C06802F001FEE06902F0FEFD77
:103BF0002046BDE8104002F0F9BD10B50446806DC6
:103C000008B1FFF7EDFF2046BDE8104002F0EEBD21
:103C100070B50D460646002405E000BF56F82400A6
:103C2000FFF7EBFF641CAC42F8D33046BDE87040B0
:103C300002F0DCBD2DE9F041074606981C4615460A
:103C40000E4628B105A0FFF7D5FD23462A4631468A
:103C50003846BDE8F04101F0EFBC000057617269E1
:103C60006E673A204E6F2073756368206F6620641C
:103C70006566757A7A6966696572210A00000000D6
:103C8000012A01D0401A7047084470472DE9F041DD
:103C900007464FF07E5590460E462846FCF7EFFB50
:103CA000044629463846FCF7EDFB2146FCF7EDFBC0
:103CB0002946FCF7E7FB414602F01CF90446414661
:103CC0002846FCF7DCFB054631463846FCF7DDFBB1
:103CD000294602F00FF92146BDE8F041FCF7D5BBBB
:103CE0002DE9F04104464FF019404E49002500EB04
:103CF000440088424AD84C492046FCF7C6FBFCF7F2
:103D0000C0FD8046FCF7B8FC064648494046FCF733
:103D1000BCFB074646494046FCF7B7FB2146FCF78B
:103D2000B1FB3946FCF7ABFB04464249FCF7ADFB5F
:103D30004149FCF752FB2146FCF7A7FB6FF04141DC
:103D4000FCF74BFB2146FCF7A0FB3C49FCF745FB8D
:103D50002146FCF79AFB0146394806F003047844F3
:103D600050F82400FCF791FB3649794451F82410AF
:103D7000FCF733FB3449794451F82410FCF72DFB50
:103D8000B11085BBBDE8F041FCF7EFBB4FF0FF4140
:103D900031EA040018D04FF0CE41B1EB440F84BF9C
:103DA0004FF07E50BDE8F0812849B1EB440F28BFA9
:103DB0000125A0D20220FFF799FD14F0004F0ED08C
:103DC000BDE8F041FFF754BD204614F5000F04BFD5
:103DD0000020BDE8F081BDE8F041FFF73BBDBDE844
:103DE000F041FFF740BDFCF7C0FB04000BD0B4F17D
:103DF000FF4F0FD0FFF706FD042808BFFFF738FD7F
:103E00002046BDE8F0810220FFF770FDBDE8F041DB
:103E1000FFF72EBD0220FFF769FDBDE8F041FFF777
:103E200022BD00000000501E3BAAB840F4FD05373B
:103E30000070313E12BB2A3D12BB2A3EFFFF7F3F7E
:103E400016460000FA450000DE4500000000A0858F
:103E5000104810B5416991F82110890703D40E4923
:103E60000020087014E0016929B14FF480720A48FB
:103E7000FCF77AFA0CE001F0EFFD08B107A100E0D1
:103E800008A10548FCF791FA08A10348FCF760FA7D
:103E9000014810BDA8030020180700206D7368209A
:103EA0000000000066696E73682000003E0000009C
:103EB0000349496911F8212F60F341020A707047E4
:103EC000A8030020014AC2E900017047A8030020AE
:103ED0007CB516491648FFF7F5FF7821012002F05E
:103EE00031FC144C6061D0B10A211520CDE90001EC
:103EF0004FF480530022104910A003F03BFB05460D
:103F000000231A460FA1606903F08CF90120FFF726
:103F1000CFFF15B1284603F07FFC00207CBD0BA02D
:103F200002F0A0FE4FF0FF307CBD0000108A0008B8
:103F3000F0880008A8030020653F000874736865D6
:103F40006C6C000073687278000000006E6F206D6A
:103F5000656D6F727920666F72207368656C6C0A8C
:103F600000000000984D686910F8211F41F0010120
:103F70000170FFF76DFF02F075FE002602F0D0FC25
:103F80000400FBD41B2C07D0686990F8201001298D
:103F900007D002290ED017E06969012081F82000BE
:103FA000ECE75B2C02D080F820600DE0022180F865
:103FB0002010E3E780F82060412CDFD0422CDDD0D8
:103FC000442C38D0432C43D0002CD7D0FF2CD5D054
:103FD000092C4ED07F2C75D0082C73D00D2C70D0AE
:103FE0000A2CFCD0B0F87210502901D3A0F87260EE
:103FF000B0F87430B0F872108B427DD2CA1A00F15A
:10400000220123301944184402F0F4FE6869B0F824
:10401000741022300C54686990F82110C90706D03A
:10402000B0F874102230014468A002F01BFE6869E9
:10403000B0F87440A5E0B0F8740000289ED064A0E9
:1040400002F010FE686930F8741F491E018095E780
:10405000B0F87410B0F8722091428FD22230095C0F
:104060005CA002F0FFFD696931F8740F401C088004
:1040700084E7002403E056A002F0F4FD641C6869A4
:10408000B0F87400A042F6DC6C6953A0223402F050
:10409000E9FD01F0E1FC012802D1204601F018FC05
:1040A000FFF7D6FE014622464CA002F0DBFD686910
:1040B0002230FCF765F9696921F8720F48805DE7E5
:1040C00000E03DE0B0F87420002AC0D0B0F87210D3
:1040D000521E491E89B293B2A0F87210A0F8743033
:1040E000994224D9CA1A00F12301223019441844F4
:1040F00002F080FE686900E049E0B0F872102230FA
:104100000E546869B0F874102230014435A002F0F2
:10411000A9FD6869B0F8744003E02DA002F0A2FD8B
:10412000641C6869B0F87200A04290DBF5E72FA02C
:1041300002F098FD6869B0F8721022300E541DE745
:1041400001F08AFC01280DD1686990F82100C007B0
:1041500002D021A002F086FD6869B0F8721022300A
:1041600001F00CFCFFF774FE02F07CFD6869502141
:104170002230FCF7E2F8686922E015A002F072FD37
:10418000641C6869B0F87200A042F6DC0AE02230D4
:104190000C54686990F82100C00703D021460DA097
:1041A00002F060FD6869B0F87210491C89B2A0F88D
:1041B0007210B0F87420521CA0F874205029BED39D
:1041C00020F8726F4680D9E6A8030020257300000E
:1041D00008000000256300000A0000002573257315
:1041E00000000000082573202008000008200800B7
:1041F00070B50C460546FCF754FC00F07040B0F179
:10420000005F07D024F00040C0F1FF40C00F04BFA2
:10421000204670BD284670BD70B50C460546FCF7BB
:1042200040FC00F07040B0F1004F07D024F0004097
:10423000C0F1FF40C00F04BF204670BD284670BDCE
:10424000032A01D2FFF71FBC062A02D2D21E01F0B8
:1042500079BC4FF07C52FFF719BD38B504468DF894
:10426000000069460320ABBE204638BD10B50028CB
:1042700021D0114B0022001F196803E0814203D8AE
:104280000A4649680029F9D152B11368841A9C4240
:1042900004D1006818441060104602E0506000E04D
:1042A000186039B102680B1A934203D10B681A44A3
:1042B00002604968416010BD680400202DE9F74F95
:1042C000A4B04FF00008394F15468346CDF844801E
:1042D000444646460DF14C090DF1040ACDF84880DC
:1042E000286900EB0612E8680168584601F028F9D1
:1042F000B84204DD4AF8240049F82460641C761CA6
:10430000072EEDDBCB460026D1461194286900EB41
:104310000612E8684168259801F012F9B84204DDF8
:1043200049F824004BF82460641C761C072EEDDB52
:104330001198211A129138B131B14843800001F02F
:104340005DF80746002621E00020414603E0EA69C7
:1043500042F82010401C6A688242F8D827B0BDE8B5
:10436000F08F00240EE01198AA68011959F8260070
:1043700059F82110FFF764FF129906FB0141641CF4
:1043800047F821001298A042EDD8761C1198B0424F
:10439000E7D82B4611AA13A93846CDF80080FFF7BD
:1043A00049FC3846FFF762FFD8E7000017B7D1385D
:1043B00070B506460D46202002F0A4FC0446701994
:1043C000C4E90065800002F09DFCE060A80002F0F6
:1043D00099FCE061204670BDF0B50024DDE905657B
:1043E00003E0C76847F82410641CD0E9007C6744E8
:1043F000A742F6D800210C4603E0C76947F82140E0
:10440000491C47688F42F8D806618260C0E90535CB
:10441000F0BD00002DE9F047156B14468A46D562C1
:10442000FCF730F8064629462063FCF728F8A16A15
:10443000FCF75DF8364F3946FCF727F8054630465D
:10444000616AFCF754F83946FCF71FF82946A26D5B
:10445000FFF734FFA56D3946E8690068FCF747F8B7
:10446000E168FCF712F821688846FBF7B6FF814641
:10447000A06168680026022809D3E86939464068C7
:10448000FCF735F82169FCF700F8E06100E0E6612F
:104490006868032809D3E86939468068FCF727F87B
:1044A0006169FBF7F2FF206200E0E661E1696068A4
:1044B000FBF793FF276B3946FBF7E7FF616BFBF7D1
:1044C0008CFF606306463846E16AFBF7D8FF054675
:1044D000216AA068FBF781FF2946FBF7D6FF054656
:1044E00049464046FBF779FF3946FBF7CEFF314698
:1044F000FBF773FF2946FBF770FF05465146206C1A
:10450000FBF7C3FF2946FBF768FF6064BDE8F0874F
:10451000000040402DE9FF4F8FB0866804469A4660
:10452000934630461099FBF7E2FF656881462846BE
:104530001099FBF7DCFF2768804638461099FBF797
:10454000D6FF0DF12C0E1E994FF47A7C4FF4FA73BE
:1045500000228EE80E10DDE91C120B4B0DF1100C41
:10456000CDF820A003938CE8010BCDE90912D4E922
:1045700004018DE80B00324629463846E36802F014
:1045800087F813B0BDE8F08F0000C84270B515463B
:104590001C461A46FFF73EFFFCF76EF801462A4616
:1045A000E06CFFF76DFBA26C216DBDE8704000F080
:1045B00035B900002DE9FF4F83B00746DDE91286CB
:1045C000DDE910A99B46B00002F09CFB05460024E3
:1045D00010E000BFCDF800A0CDE90198DDE904129C
:1045E000C4EBC40007EB80005B46FFF793FF45F880
:1045F0002400641CB442EDD307B02846BDE8F08F18
:1046000010B5124C2068800702D511A002F02AFBD9
:104610002068400011D50D48C01E007808B1FFF792
:1046200061FA0A48001F007808B100F01DFF074832
:10463000801E008808B103F0F9FC2068002804DA25
:10464000BDE8104008A002F00DBB10BD2CED00E04D
:104650006661696C656420766563746F7220666557
:104660007463680A000000006465627567206576FF
:10467000656E740A0000000010B502A002F0F2FAA4
:10468000002010BD48656C6C6F2052542D54687228
:10469000656164210A00000070B50C46032804DA45
:1046A00021A002F0DFFA27A01FE030A16068FBF72D
:1046B0006EFE30B12EA16068FBF769FE18B12DA027
:1046C00013E0364E00E0364E202536A1A068FBF7F9
:1046D0005EFE70B134A1A068FBF759FE88B133A12A
:1046E000A068FBF754FEA0B132A0BDE8704002F014
:1046F000B9BA002229463046FCF711FE3BA061689A
:104700000DE0012229463046FCF709FE3BA0616816
:1047100005E029463046FCF7FAFD61683BA0BDE89C
:10472000704002F09FBA000055736167653A206CD3
:104730006564205B722F675D205B6F6E2F6F66660E
:104740005D0A00004578616D706C653A206C6564A7
:104750002072206F6E2020285475726E206F6E209C
:10476000526564204C4544290A0000007200000094
:10477000670000004572726F723A20556E6B6E6F63
:10478000776E20636F6C6F722120557365202772DE
:1047900027206F72202767272E0A0000000C014097
:1047A000001801406F6E00006F666600746F6767E7
:1047B0006C6500004572726F723A20556E6B6E6FB9
:1047C000776E20616374696F6E21205573652027B1
:1047D0006F6E272C20276F666627206F7220277444
:1047E0006F67676C65272E0A000000004C45442067
:1047F0002573206973204F4E0A0000004C45442069
:104800002573206973204F46460A00004C4544201A
:10481000257320546F67676C65640A00884201DD68
:10482000084670479042FCDA1046704770B50CA0FD
:1048300002F018FA0F48104D04680BE002220FA195
:104840002068FBF7BBFD20B1D4E900120CA002F0F8
:1048500009FA0C3428688442F0D3002070BD0000AF
:104860002D2D46756E6374696F6E204C6973743AB2
:104870000A000000A8030020AC0300205F5F0000D6
:10488000252D313673202D2D2025730A00000000C0
:104890002DE9F04104461E4617460D46084602F033
:1048A000F7FB001D2060257200206760C4E90360EB
:1048B000BDE8F0812DE9F0410D4600212961E9684C
:1048C00091B1297A81B12E6888B10446FBF74EFC7C
:1048D0000146A4F10C002A7A007A20F08000904270
:1048E00009D00846FBF746FC0020BDE8F0813446BD
:1048F000FBF73CFC0146686800272468B44201D1FC
:10490000002404E010C0EA687F1CBA42F5D10846D2
:10491000FBF730FC20462F61E7E700002DE9F0416E
:1049200096B000262FA408230CAA052106A8FFF79D
:10493000AFFF08208046014622462CA002F092F9E3
:10494000404601F0F3F832A002F08CF906A9304697
:10495000FFF7B0FF064600253BE00CA850F82540C5
:104960000C3CFBF703FC0146207A9DF8202020F048
:1049700080009042084602D0FBF7FCFB28E0FBF7E2
:10498000F9FB606904F11407B842384613D002F00D
:1049900095F9228C618C0091CDE9012023460822F3
:1049A000414622A002F05EF9384603F02FFA25A016
:1049B00002F058F90CE002F081F9218C628CCDE90B
:1049C000002102902346082241461FA002F04AF926
:1049D0006D1C0A98A842C0DC002EB7D116B000208A
:1049E000BDE8F0816D61696C626F7800252D2A2E1B
:1049F0007320656E7472792073697A65207375739C
:104A000070656E64207468726561640A000000005D
:104A1000202D2D2D2D20202D2D2D2D202D2D2D2DFA
:104A20002D2D2D2D2D2D2D2D2D2D0A00252D2A2E10
:104A30002A732025303464202025303464202564F6
:104A40003A0000000A000000252D2A2E2A73202596
:104A50003034642020253034642025640A000000AE
:104A600010B5074C07A0E16802F0FCF80AA0216924
:104A700002F0F8F86169BDE810400CA002F0F2B84D
:104A8000D8030020746F74616C206D656D6F72794E
:104A90003A2025640A00000075736564206D656D19
:104AA0006F7279203A2025640A0000006D617869F0
:104AB0006D756D20616C6C6F6361746564206D65EC
:104AC0006D6F72793A2025640A000000F0B595B048
:104AD000002623A408230DAA032107A8FFF7D8FE68
:104AE00008272246394620A002F0BCF8384601F0DB
:104AF0001DF826A002F0B6F807A93046FFF7DAFE47
:104B00000646002523E00DA850F825400C3CFBF795
:104B10002DFB217A9DF8242021F08001914202D0C2
:104B2000FBF728FB12E0FBF725FB04F1140002F071
:104B3000C5F8E17F226A0823CDE90032CDE90210F1
:104B400023460822394619A002F08CF86D1C0B98F8
:104B5000A842D8DC002ECFD115B00020F0BD000057
:104B60006D75746578000000252D2A2E7320202095
:104B70006F776E65722020686F6C64207375737038
:104B8000656E64207468726561640A00202D2D2DA5
:104B90002D2D2D2D2D202D2D2D2D202D2D2D2D2D5F
:104BA0002D2D2D2D2D2D2D2D2D0A0000252D2A2EBC
:104BB0002A7320252D382E2A732025303464202591
:104BC000640A00002DE9F04194B000262CA40823CB
:104BD0000BAA022105A8FFF75BFE082080460146CC
:104BE00022462AA002F03EF8404600F09FFF2EA089
:104BF00002F038F805A93046FFF75CFE06460025AE
:104C000035E00BA850F825400C3CFBF7AFFA217AB1
:104C10009DF81C2021F08001914202D0FBF7AAFAF6
:104C200024E0FBF7A7FA606904F11407B84238469C
:104C300011D002F043F8A18BCDE9001023460822E1
:104C400041461FA002F00EF8384603F0DFF815A029
:104C500002F008F80AE002F031F8A18BCDE900106B
:104C60002346082241461AA001F0FCFF6D1C09985A
:104C7000A842C6DC002EBDD114B00020BDE8F081F2
:104C800073656D6170686F7265000000252D2A2EB6
:104C900073207620202073757370656E64207468AD
:104CA000726561640A000000202D2D2D202D2D2D10
:104CB0002D2D2D2D2D2D2D2D2D2D2D0A00000000FB
:104CC000252D2A2E2A7320253033642025643A00AE
:104CD000252D2A2E2A7320253033642025640A00CE
:104CE0002DE9F041B4B000263CA408232CAA0121F0
:104CF00026A8FFF7CDFD0820804601462246394808
:104D000001F0B0FF404600F011FF37A001F0AAFF0C
:104D100026A93046FFF7CEFD0646002554E02CA814
:104D200050F825400C3CFBF721FA0746207A9DF805
:104D3000A01020F08000884203D03846FBF71AFA12
:104D400041E07822214607A8FBF7DEFA3846FBF758
:104D500011FA94F83500009023460822414632A00B
:104D600001F080FF94F8340000F00F00012807D014
:104D7000022807D040B1042808D0032808D00AE050
:104D80002CA006E02EA004E030A002E032A000E05B
:104D900034A001F067FFA06A014600E0401C0278E1
:104DA000232AFBD0E26A401A101A64235843B0FB4E
:104DB000F2F3276B206CCDE90007E069081A81182F
:104DC0002BA001F04FFF6D1C2A98A842A7DC002EF3
:104DD0009ED134B00020BDE8F08100007468726597
:104DE0006164000008850008202D2D2D20202D2D28
:104DF0002D2D2D2D2D202D2D2D2D2D2D2D2D2D2DF0
:104E0000202D2D2D2D2D2D2D2D2D2D20202D2D2DF9
:104E10002D2D2D20202D2D2D2D2D2D2D2D2D2D20E9
:104E20002D2D2D0A00000000252D2A2E2A73202565
:104E30003364200020726561647920200000000046
:104E40002073757370656E640000000020696E69E0
:104E5000742020200000000020636C6F7365202008
:104E6000000000002072756E6E696E670000000021
:104E70002030782530387820307825303878202058
:104E80002020253032642525202020307825303818
:104E90007820253033640A00F0B593B0002626A4AC
:104EA00008230BAA0A2104A8FFF7F2FC08272246D0
:104EB000394623A001F0D6FE384600F037FE2AA07E
:104EC00001F0D0FE04A93046FFF7F4FC06460025A9
:104ED00024E00BA850F825400C3CFBF747F9217A59
:104EE0009DF8182021F08001914202D0FBF742F991
:104EF00013E0FBF73FF9D4E90901CDE900012346AE
:104F00000822394621A001F0ADFE607AC00701D029
:104F100024A000E026A001F0A5FE6D1C0898A84280
:104F2000D7DC002ECED102F009FD014624A001F00D
:104F300099FE13B00020F0BD74696D657200000029
:104F4000252D2A2E732020706572696F6469632095
:104F5000202074696D656F7574202020202020202A
:104F6000666C61670A000000202D2D2D2D2D2D2D42
:104F70002D2D2D202D2D2D2D2D2D2D2D2D2D202D7B
:104F80002D2D2D2D2D2D2D2D2D2D0A00252D2A2EAB
:104F90002A732030782530387820307825303878DA
:104FA000200000006163746976617465640A000022
:104FB00064656163746976617465640A0000000069
:104FC00063757272656E74207469636B3A3078250C
:104FD0003038780A0000000010B50C46012808DDC2
:104FE0006068FBF7CDF9C1B26068BDE81040FDF71D
:104FF0006BBBBDE8104001A001F034BE5573616782
:10500000653A206C6F72615F73656E64203C6D65FC
:1050100073736167653E0A0010B542210448FDF7CD
:1050200018FE0146BDE8104002A001F01BBE0000C2
:10503000800500204D616E75616C20526561643A97
:10504000203078253032580A000000002DE9F04762
:10505000FDF7AEFA00287DD156A001F003FE4FF413
:10506000FA68424640215D48FDF7D9FC02F066FC33
:105070005B4C5C4D00264FF0010944F63827606018
:105080005648FDF70CFE002872D08022554953483F
:10509000FDF73AFF002866DD52490878AB2862D157
:1050A0004878012802D0032844D05CE0D5F80610E7
:1050B0004DA001F0D7FD02F041FC6060E670207861
:1050C00020B103280AD0012805D018E04EA001F035
:1050D000C9FD84F80090607830B144E057A001F039
:1050E000C1FD667084F80090FBF7FCF8642190FB2A
:1050F000F1F201FB120002F043FBFDF743FF2078C1
:10510000022830D1A27840463AB102EB4201C1EB0D
:10511000C21108EBC100A0F57A701E30824601462C
:105120001E2351A001F09EFD504602F029FBFEF720
:1051300005F818E02078012815D1A9796170E8797F
:10514000A0700220207024A001F08CFD53A001F07B
:1051500089FD00E02CE0A27861785AA001F082FD80
:105160004EA001F07FFD424640211C48FDF757FC50
:1051700002F0E4FB6168401AB84215D9E0780322D6
:10518000401CC1B2E1705AA001F06CFD02F0D6FBE8
:105190006060E078032807D32078022804D15DA05E
:1051A00001F060FD032020700A2002F0E9FA67E7B1
:1051B000BDE8F0875B4C6F52615D204E6F646520E7
:1051C000537461727465642E2053746174653A205F
:1051D0005343414E4E494E470A00000080050020CF
:1051E00088030020980600205B53594E435D2042FF
:1051F0006561636F6E20526563762E2054696D651C
:105200003A25750A000000005B5374617475735D84
:1052100020466F756E64204E6574776F726B212027
:10522000537769746368696E6720746F204A4F49C9
:105230004E494E472E2E2E0A000000005B5374612B
:105240007475735D204E6574776F726B2052656361
:105250006F7665726564212052652D4A6F696E69AB
:105260006E672E2E2E0A00005B53594E435D205769
:10527000616974696E67202564206D7320666F72A2
:1052800020536C6F74202564202847756172643A3E
:105290002025646D73292E2E2E0A0000232323233C
:1052A00023232323232323232323232323232323CE
:1052B00023232323232323232323232323232323BE
:1052C00023230A0023204A4F494E20535543434588
:1052D000535321204920616D204E6F646520256461
:1052E0002028536C6F742025642920230A000000B5
:1052F0005B5741524E5D204D697373656420426572
:1053000061636F6E2120436F756E743A2025642FA0
:1053100025640A0021212120434F4E4E4543544924
:105320004F4E204C4F535420212121205377697434
:105330006368696E6720746F204F46464C494E453E
:105340002F5343414E4E494E472E0A00FCF70CF8AE
:10535000FEF723F8FDF708FAFDF79AFAFDF7BCFA15
:10536000FBF7E8FFFAF7C8FF09A001F07BFC09A0F2
:1053700001F078FC12A001F075FC06A001F072FCAF
:10538000FEF7F2F94FF47A74204602F0F9F9FBE7E0
:105390000A0000003D3D3D3D3D3D3D3D3D3D3D3D27
:1053A0003D3D3D3D3D3D3D3D3D3D3D3D3D3D3D3D2D
:1053B0003D3D3D3D3D3D3D3D3D3D3D3D3D3D0A008D
:1053C000202020526565666572204E6F646520530B
:1053D000797374656D202852542D54687265616428
:1053E000292020202020202020200A0010B501F0B4
:1053F000C5F9BDE81040FFF7A9BF0000F0B50B30BC
:10540000154D20F007010024144A0FE003688B4279
:105410000BD38B4205D95E1A43184768C3E900676E
:1054200000E04368136002C004E0021D1068002819
:10543000ECD12046002802D1286808B10020F0BD38
:10544000064A07481060074A121A22F00702C0E90C
:10545000002401202860D7E76C04002068040020A5
:10546000BC470020B849002010B518A001F0FAFB95
:105470001B4C21781BA001F0F5FB2078C00702D05F
:105480001EA001F0EFFB2078800702D51EA001F0DE
:10549000E9FB2078000702D51EA001F0E3FB20788D
:1054A000C00602D51EA001F0DDFB2078000607D55E
:1054B0000B480C300168BDE810401CA001F0D2BBC5
:1054C000BDE810401D4801F0CDBB00006D656D20AA
:1054D0006D616E616765206661756C743A0A0000E3
:1054E00028ED00E05343425F434653525F4D46531D
:1054F000523A307825303258200000004941434369
:1055000056494F4C200000004441434356494F4CFC
:10551000200000004D554E53544B45525220000080
:105520004D53544B45525220000000005343422D2E
:105530003E4D4D41523A253038580A009C800008B3
:105540002DE9F843804614460D464FF07E5710680B
:10555000FBF789F80646062D61D2DFE805F003184F
:10556000304260566068FBF77EF80146344640469C
:10557000FAF785FF2146FAF7BAFF4FF0804100F0B5
:10558000B9FCBDE8F84380F00040FEF7A9BBA06875
:10559000FBF769F805466068FBF765F80121FAF743
:1055A000E4FF044629464046FAF769FF3146FAF718
:1055B0009EFF20F00040214600F09CFC0CE0A0681B
:1055C000FBF751F8014634464046FAF75BFF2146A7
:1055D000FAF75BFFFEF784FB3946BDE8F843FAF7BC
:1055E000FCBEE068FBF73FF80746A068FBF73BF816
:1055F00005466068FBF737F8024631462B460097B0
:10560000404602F0CFFCBDE8F8836068FBF72BF85A
:10561000024631464046BDE8F84302F074BDA0683A
:10562000FBF721F805466068FBF71DF80246314696
:1056300013460095E4E700002DE9FF4F81B00020FC
:10564000009058681D4617468B468000FFF7D6FE2F
:1056500081460020014602E049F82010401C6A689B
:105660008242F9D80026D7F800A010E0D7F80480CD
:105670000AE000BF06FB0841019850F8211000988D
:10568000FAF7ABFE641C0090A045F3D8761CB24537
:105690004FF00004EAD82DE0002026E000261EE0AE
:1056A0005BF82800C4EBC4021044C0EBC0013868AA
:1056B00082195BF822000144A86950F82100FAF72A
:1056C000D2FF08FB0A62019951F82210FAF7DDFEB9
:1056D00059F82410FAF781FE49F82400761C7868FE
:1056E0008246B042DCD808F1010039688046414565
:1056F000D4D8641C6868A042CED8002409E000BF5A
:1057000059F824000099FAF7F2FEE96941F82400FB
:10571000641C6868A042F3D805B04846BDE8F04F65
:10572000FEF7A4BD2DE9F0410D4603280ADA26A0B4
:1057300001F098FA2FA001F095FA38A001F092FA42
:1057400040A02BE06868FEF7B7F9FAF7D5FF0446EA
:10575000A868FEF7B1F9FAF7CFFF414E054614F0FD
:10576000FF4F18D00C212046FAF7FFFEFAF784FF0E
:10577000041E27D000DA6042FAF775FF0746394960
:105780002846FAF782FE3946FAF7B1FEFAF78DFF9E
:10579000050007D00AE00020B06033A0BDE8F0416A
:1057A00001F060BA012535A001F05CFAF560B46043
:1057B000706801F049FD2A462146BDE8F0413CA051
:1057C00001F050BABDE8F08155736167653A206D0C
:1057D0006F746F725F726576203C7265766F6C7560
:1057E00074696F6E733E203C7365636F6E64733EC5
:1057F0000A00000045783A206D6F746F725F726521
:105800007620312035202020283120636972636C96
:105810006520696E203573290A00000045783A201A
:105820006D6F746F725F72657620302E3520322076
:1058300028302E3520636972636C6520696E2032D2
:1058400073290A0045783A206D6F746F725F726534
:1058500076203020302020202853746F70290A00D1
:105860009403002000007A444D6F746F72205374CB
:105870006F7070696E672E2E2E0A00005B574152C2
:105880004E494E475D20546F6F206661737421202E
:1058900043617020737065656420746F206D61785A
:1058A0002028316D732064656C6179292E0A00000F
:1058B000434D443A2025642073746570732C204452
:1058C000656C61793A202564206D730A0000000040
:1058D0002DE9F0478046002500782C4618B1224873
:1058E000224F066831E0BDE8F0470021084600F08D
:1058F00077B806221EA13068FAF760FD20BB306839
:1059000000F106094046FAF73BFD0246494640468B
:10591000FAF754FDC0B925B94C464846FAF730FDB0
:1059200005464946204601E0401C491C02781AB150
:105930000B780BB19A42F7D0001BA84200DA05465B
:1059400049460DA001F08EF90C3638688642D0D356
:10595000002C06D02A4621464046BDE8F04701F01B
:105960002FBDBDE8F0870000A8030020AC03002095
:105970005F5F636D645F000025730A0038B50446FD
:1059800001E0491E641C59B120782028F9D009286B
:10599000F7D06A462046FDF7B7FF18B1204604E06D
:1059A000002038BD009838BD401C0178202901D066
:1059B0000029F9D100210170214603A001F052F91C
:1059C0004FF0FF3038BD000025733A20636F6D6DD6
:1059D000616E64206E6F7420666F756E642E0A00AF
:1059E00070B50EA001F03EF91348144D04680CE0A8
:1059F000062213A12068FAF7E1FC28B9D4E90012C5
:105A000011A0891D01F02EF90C3428688442EFD3CF
:105A100010A001F027F9002070BD000052542D5451
:105A20006872656164207368656C6C20636F6D6D6E
:105A3000616E64733A0A0000A8030020AC030020E2
:105A40005F5F636D645F0000252D313673202D206C
:105A500025730A000A0000000120704770B500237A
:105A600015461C461A464BE000F8012B5B1C0678D5
:105A7000202E01D0092E01D18B42F5D3082C11D351
:105A800021A001F0EFF8002606E000BF55F826102F
:105A900025A001F0E7F8761CA642F7D321A001F07B
:105AA000E1F82FE08B422DD2F6B2222E03D045F83A
:105AB0002400641C1BE0401C45F824005B1C641C93
:105AC00008E05C2E04D14678222E01D1401C5B1CDC
:105AD000401C5B1C0678222E01D08B42F1D38B42F6
