:020000040800F2
:10000000204E002049010008A32D0008110200081D
:10001000A12D00087B120008253F00080000000009
:100020000000000000000000000000008531000812
:100030007D120008000000009B010008F13A000852
:100040006301000863010008630100086301000800
:1000500063010008630100086301000863010008F0
:100060007F120008630100086301000863010008B3
:1000700063010008630100086301000863010008D0
:1000800063010008630100086301000863010008C0
:1000900063010008630100086301000863010008B0
:1000A00063010008630100086301000863010008A0
:1000B0006301000863010008630100086301000890
:1000C0006301000863010008630100087D30000837
:1000D000630100080D3F000863010008193F000894
:1000E0006301000863010008630100086301000860
:1000F0006301000863010008630100086301000850
:10010000630100086301000863010008630100083F
:100110006301000863010008CD3B0008630100088B
:10012000630100086301000863010008630100081F
:10013000DFF810D000F006FE0048004771120008FA
:10014000AFF30080204E0020064880470648004755
:10015000FEE7FEE7FEE7FEE7FEE7FEE7FEE7FEE777
:10016000FEE7FEE7C93B000831010008EFF310800D
:1001700072B6704780F310887047324A1368012BBB
:1001800004D04FF0010313602F4A10602F4A116012
:100190002F484FF0805101607047EFF3108272B624
:1001A0002848016891B14FF00001016026480168BC
:1001B00029B1EFF3098121E9F00F006801602349BB
:1001C00009680968B1E8F00F81F3098882F31088A3
:1001D0004EF0040E70471D4908601B494FF00000A7
:1001E000086018494FF0010008601A481A49D0F811
:1001F000002041EA0201016015484FF08051016082
:1002000016480068006880F3088861B662B67047D7
:100210001EF0040F0CBFEFF30880EFF3098020E914
:10022000F00F40F804ED1EF0040F0CBF80F30888B7
:1002300080F3098800B507F0B3FC5DF804EB4EF0DD
:10024000040E7047E4030020DC030020E0030020DC
:1002500004ED00E020ED00E00000FFFF08ED00E00D
:100260002DE9F05F0546002092469B4688460646EB
:10027000814640241BE0284641464746224600F07E
:1002800020F853465A46C01A914110D311461846D9
:10029000224600F085FA2D1A67EB01084F462246E8
:1002A0000120002100F07CFA17EB00094E41201ECE
:1002B000A4F10104DFDC484631462A464346BDE846
:1002C000F09F202A04DB203A21FA02F00021704737
:1002D00021FA02F3D040C2F12002914008431946AE
:1002E000704700000649074A0868504343F2390244
:1002F00010440860400870470149086070470000DA
:10030000780400206D4EC64140EA01039B0703D0EC
:1003100009E008C9121F08C0042AFAD203E011F844
:10032000013B00F8013B521EF9D27047D2B201E006
:1003300000F8012B491EFBD270470022F6E710B5EA
:1003400013460A4604461946FFF7F0FF204610BD43
:10035000421E12F8013F002BFBD111F8013B02F8BD
:10036000013B002BF9D1704710B5044604E00B782F
:1003700000F8013B03B1491C521EF8D2204610BDC3
:10038000421C10F8011B0029FBD1801A704710B5E0
:10039000002200E0521C835C8C5CA34201D1002B44
:1003A000F8D1D8B2E1B2401A10BD034611F8012BC2
:1003B00000F8012B002AF9D11846704730B50546E0
:1003C0000020034600E05B1C934205D2EC5CC85C55
:1003D000201A01D1002CF6D130BD70B5064603F0CD
:1003E00035FE046805460A220021304600F036FA40
:1003F0002C6070BDF0B480EA0102D40F4200B2EB71
:10040000410F02D20246084611464A0042D0C30DAF
:10041000DDB2C1F3C752AD1A202D35DAC1F3160192
:1004200041F4000204B15242C5F1200602FA06F17D
:100430002A411044B3EBD05F23D0C4B1012DA0EB0F
:10044000C35009DCF0BC4FF0004202EAC352DBB2F9
:1004500000F5000000F043BA400000F1807000EBAE
:10046000C350A0F1807040EAD170490009E049080A
:1004700041EAC071A0EBC35000F50000400800EB5A
:10048000C350F0BC00F022BA6142012202EB4101EC
:10049000001BF6E7F0BC704781F00041AAE780F04E
:1004A0000040A7E780EA010210B502F000434000D7
:1004B00022D04A001FD0010E01EB1261C0F356009A
:1004C000C2F3560240F4000042F40002A0FB0220F6
:1004D00000047F39140400D0401C50EA124001D4BB
:1004E0004000491EC2B20C0604EBD010401C40086C
:1004F000802A02D003E0002010BD20F00100002976
:1005000000DA0020184310BD30B480EA010202F086
:10051000004530F0004221F0004013D090B1C30DEF
:10052000D40DC2F31601C0F31600E41A41F4000121
:1005300040F400027D34914201D3641C00E0490084
:10054000002C02DA30BC002070474FF4000000237A
:10055000914201D3891A034340084FEA4101F7D180
:1005600051B1914202D14FF0004105E002D24FF06B
:10057000010101E06FF0010103EBC450284430BCDD
:1005800000F0A4B9420005D0C0F3C75252429142D4
:1005900001DC0020704700EBC15070472DE9FE4F91
:1005A00081EA030404F0004421F0004100944FF07C
:1005B000000B23F0004350EA01045ED052EA03042A
:1005C0005BD0C3F30A54C1F30A552C44A4F2F334AC
:1005D0000194A0FB0254C1F3130141F48011C3F351
:1005E000130343F4801301FB024400FB034E840A0F
:1005F000970A44EA815447EA8357A4FB07680295A7
:100600008D0A05FB07854FEA932C04FB0C54270544
:10061000029D4FEA065847EA1637B5EB08056EEB20
:10062000070C870E920E47EA811742EA8312A7FB56
:100630000201B6EB0B0164EB00042B0D43EA0C3313
:100640005E1844EB1C50DA465146E7FB0201C5F345
:1006500013044FEA0B3343EA14534FEA0432019C6C
:1006600043EA0603A4F10C040294009CCDE900B413
:1006700000F090F903B0BDE8F08F00200146F9E7E3
:10068000C10F80EAE0700844CA079623002100F0F9
:1006900026B900F0004220F00040C10DC0F3160062
:1006A00040F400007F2901DA00207047962903DC1E
:1006B000C1F19601C84001E096398840002AF4D083
:1006C0004042704720F00040C10DC0F3160040F4D6
:1006D00000007F2901DA00207047962903DCC1F170
:1006E0009601C840704796398840704700F0004234
:1006F00030F000400AD0C10D01F56071C0F3160062
:1007000042EA0151C20840071143704700200146E8
:10071000704701F0004330B421F0004150EA01027B
:1007200006D00A0DA2F56072C1F31301002A02DCA3
:1007300030BC00207047440F44EAC104C100E018F7
:1007400030BC00EBC25000F0C1B80000002801DB53
:10075000C0F10040002901DBC1F100418142704736
:10076000002801DBC0F10040002901DBC1F100419C
:100770008842704730B50B460146002020220124F4
:1007800009E021FA02F59D4205D303FA02F5491B5F
:1007900004FA02F52844151EA2F10102F1DC30BD75
:1007A000202A04DB203A00FA02F100207047914031
:1007B000C2F1200320FA03F3194390407047000070
:1007C0000FB4002300B589B00CA900910B996FF00C
:1007D0000042CB601E4B06931E4B07930423CDE9CA
:1007E00001321D4A089202466B46002000F070FB61
:1007F00009B05DF814FB70B586B006464FF0FF30C7
:100800000091CDE90101002015460C4604903246C6
:10081000694604A8FFF7D4FF02460498211825B1C1
:1008200008B1084600E020462860049800280DD052
:10083000002A02DD0098884208D0081B0094CDE908
:1008400001043246694604A8FFF7BAFF06B070BD3E
:100850000911000827110008950D00082DE9F0473F
:1008600091460F4680460446002614F8015B2DB1E0
:1008700000F08CFA0068405DC007F6D12B2D02D045
:100880002D2D18D0641E4A463946204600F05CFCE7
:1008900027B13968A14201D1C7F8008071054FF036
:1008A00002040BD54042002803DD03F0CFFB0460B7
:1008B000A007BDE8F08746F48066E4E70028F8DA90
:1008C00003F0C4FB04606FF00040F2E70029A8BF0A
:1008D0007047401C490008BF20F00100704710B469
:1008E000B0FA80FC00FA0CF050EA010404BF10BC1E
:1008F000704749B1CCF1200421FA04F411FA0CF14B
:1009000018BF012121430843A3EB0C01CB1D4FEA83
:1009100000614FEA102042BF002010BC704700EB7E
:10092000C35010440029A4BF10BC7047401C4900AC
:1009300008BF20F0010010BC704710B541000CD07A
:10094000C0F3C751962908DC7E2909DC06DB410289
:1009500004D000F0004040F07E5010BD002010BDDB
:10096000C1F19604C4F1200100FA01F1E040FFF763
:10097000ADFFA04010BD10B5141E73F1000408DADD
:10098000401C41F1000192185B411A4301D120F053
:10099000010010BD2DE9F04D92469B4611B1B1FA10
:1009A00081F202E0B0FA80F220329046FFF7F8FEC2
:1009B00004460F4640EA0A0041EA0B0153465A46F4
:1009C000084313D0114653EA010019D0C8F1400280
:1009D0005046FFF776FC05460E46504659464246BD
:1009E000FFF7DEFE084305D0012004E0204639462B
:1009F000BDE8F08D0020054346EAE0762C433743FE
:100A00000A986305E40AA0EB08000022FD0A44EA04
:100A100047540A3002D500200146E9E701051019C4
:100A20006941DDE9084500196941BDE8F04DA2E7DB
:100A30002DE9FE4F804681EA0300C00F0C4600906E
:100A400021F0004123F00045B8EB0200A94105D296
:100A50004046214690461C460B46024623F0004085
:100A6000104347D0270DC7F30A00C3F30A51029081
:100A7000401A019040286BDAC3F3130040F4801B46
:100A80000098924620B10023D2EB030A63EB0B0BD4
:100A900001985946C0F140025046FFF781FE0646D4
:100AA0000D4650465946019A00F05EF910EB0800D9
:100AB0006141002487EA115284EAE7731A4340D067
:100AC000009A62B3019A012A4FEA075215DC001B13
:100AD00061EB02014FF0004202EA0752CDE9004209
:100AE000001C41F5801132462B46FFF753FF03B03F
:100AF000BDE8F08F40462146F9E7001B61EB02019B
:100B0000001C41F5801300185B412018A2F5001766
:100B100047EB030140EAD570B6196D4111E06D084D
:100B20004FEA360645EAC0754FEA0752001B61EBF3
:100B30000201001C41F5801149084FEA30000019FC
:100B4000514132462B4603B0BDE8F04FFFF713BFCB
:100B50000098012240000023D0EB020263EBE07317
:100B6000009821464FEAE074B8EB000061EB040105
:100B7000E9E783F000435BE781F0004158E72DE9A6
:100B8000F04D81EA030404F0004B21F000451446C7
:100B90004FF0000A23F0004150EA050220D054EA49
:100BA00001021DD0C5F30A570246C5F31303C1F372
:100BB0001300C1F30A5640F4801543F48013A7EBE9
:100BC0000608101BD64608F2FD3873EB050002D369
:100BD00008F1010801E092185B41B8F1000F03DA57
:100BE00000200146BDE8F08D00204FF4801106463C
:100BF00084460EE0171B73EB050705D3121B63EB4E
:100C0000050306434CEA010C49084FEA30009218EC
:100C10005B4150EA0107EDD152EA030012D082EAAB
:100C2000040083EA0501084305D0101BAB4106D23E
:100C30000122002306E000224FF0004302E06FF0A3
:100C4000010253101AEB06004CEB085110EB0A009E
:100C500041EB0B01BDE8F04DFFF78DBEC1F30A5229
:100C6000C1F3130140F2FF3341F480119A4202DADA
:100C700000200146704740F233439A42A2F23342C9
:100C800002DC5242FFF71DBBFFF78ABD10B500F032
:100C9000004420F00040C20DC0F3160040F40000F4
:100CA0007F2A07DA7D2A00DA7D22763A00FA02F1FD
:100CB000002008E0962A09DCA2F1760100FA01F191
:100CC000C2F19602D040FFF701FE01E0963A904053
:100CD000002C00D0404210BD30B5041E71F100045C
:100CE00004DB4FF00044404264EB0101141E73F139
:100CF000000405DB1C464FF00043524263EB040343
:100D0000994208BF904230BD002801DBC0F100408D
:100D1000002901DBC1F10041814202D24FF00040C5
:100D200004E04FF0005001D14FF0C0404FEA206284
:100D3000EFF3008162F31F6181F3008870470020A8
:100D400070470000064C074D06E0E06840F00103E4
:100D500094E8070098471034AC42F6D3FFF7ECF95B
:100D6000189D0008389D0008202A06DBCB17203A82
:100D700041FA02F043EAE07306E041FA02F3D040A0
:100D8000C2F120029140084319467047004870475D
:100D9000A897000810B50446FFF7F8FF0068005D4B
:100DA00000F0010010BD00002DE9FF4F087883B06E
:100DB0009946FF2805D0491C2D2804D00024002086
:100DC00008E000200BE00124F9E700EB800003EBD2
:100DD0004000491C0B78FF2BF7D104B1404200239F
:100DE0000293147819461D462D2C01D02B2C04D1CA
:100DF000521C2D2C13D000240294AA461478FF2CE8
:100E00000FD00A25A3FB057801FB05814FF0000CEC
:100E100003FB0C11521CE3194AEB0101EEE701241C
:100E2000EAE7814453EA010002D019F5C87F06DAE7
:100E300003980021C0E9001107B0BDE8F08F00253C
:100E4000AE4E2F46DFF8B882184600F0DAF9CDE949
:100E50000001B9F1000002DAC9F1000400E0044623
:100E60000023A74A1AEB030B42EB045A12E0E007F7
:100E700007D02A46334638464146FFF78FFB0746E0
:100E800088462A46334610461946FFF787FB054633
:100E90000E466410002CEAD1DDE90001B9F1000F23
:100EA0005A46534606DAFFF76AFE3A464346FFF7CC
:100EB00066FE05E0FFF772FB3A464346FFF76EFB1E
:100EC000029A0AB181F00041039AC2E90001B3E736
:100ED0002DE9FF4F1F468DB0D7E901464FF0FF388F
:100EE0002E2045464FF000090B90B9696D1C0E98F5
:100EF0008847396A824688470028F6D1BAF1FF3F11
:100F00000AD024F4D064002E11DDBAF12B0F08D0E2
:100F1000BAF12D0F0BD102E0404611B08DE744F439
:100F20008064B9696D1C0E9888478246761E6946B2
:100F3000600501D52D2000E02B208DF8000001F187
:100F4000010B0DF1200809E0B9696D1C0E98884766
:100F500082460F9844F40074761E0560002E02DD70
:100F6000BAF1300FF0D00B998A453ED144F080049D
:100F700006E00F99681CA9F1010944F400740860A7
:100F8000B9696D1C761E0E98884782463028F0D0CD
:100F90002BE00B998A4505D1200603D444F0800448
:100FA000761E18E0504603F06DF908B30DF11301F9
:100FB000761E44F400748B4508D2AAF130000BF879
:100FC000010B200607D5A9F1010003E0200602D499
:100FD00009F101008146A00502D50F99681C08603F
:100FE000B9696D1C0E9888478246002ED1DC53E00B
:100FF000002E51DDBAF1650F02D0BAF1450F4BD189
:10100000A00549D5B9696D1C24F44074761E0E986C
:1010100088478246002E0CDD2B2804D0BAF12D0F14
:1010200007D144F48074B9696D1C0E9888478246D4
:10103000761EE00501D52D2100E02B2108F8011BCB
:10104000CDF82C8021E00DF12901761E44F40074C6
:1010500088450CD2AAF1300010F0FF0088F800009B
:1010600002D10B99884509D908F1010806E0E0058D
:1010700001D5244801E042F20F708146B9696D1C28
:101080000E98884782460F980560002E04DD504672
:1010900003F0F8F80028D6D1F9690E988847FF20A8
:1010A0008BF8000088F800000020069007904B465F
:1010B0006A4608A906A8FFF777FEA00502D46FF0DC
:1010C00001002AE714F0240F0AD0E00714D1DDE96B
:1010D00006123868031D3B600068C0E900120BE08F
:1010E000DDE90601FFF715FB0146E00704D138688A
:1010F000021D3A600068016028460EE700001440B7
:101100000000F03FF1D8FFFF426842B1016811F8DA
:10111000013B23B1521EC0E900121846704701215D
:10112000C160881E704742685AB1C368016843B9FC
:1011300083688B4205D0491E521CC0E90012002072
:1011400070474FF0FF3070472DE9F05F824600781E
:10115000002715468B460AF10104B946302801D014
:101160009DB113E014F8010B0127782803D058280B
:1011700001D045B10AE00DB1102D07D1002710258F
:1011800014F8010B02E0082500E00A250026B0460D
:101190000EE005FB080005FB06F1012701EB1046F8
:1011A0001FFA80F8B6F5803F00D3B94614F8010B5A
:1011B000294600F018F80028EBDABBF1000F05D043
:1011C0000FB1641E00E05446CBF80040B9F1000FA7
:1011D00006D002F03BFF02210160C81EBDE8F09F6F
:1011E00048EA0640FAE73A2800D2303820F02002D8
:1011F000412A01D3A2F13700884201D34FF0FF30DA
:1012000070470EB540F2334202920022CDE900222F
:101210001346FFF7BFFB03B000BD70B58C1810F884
:10122000015B15F0070301D110F8013B2A1106D12B
:1012300010F8012B03E010F8016B01F8016B5B1E45
:10124000F9D12B0705D40023521E0DD401F8013B20
:10125000FAE710F8013BCB1A921C03E013F8015B8C
:1012600001F8015B521EF9D5A142D8D3002070BD10
:1012700010B507F0BBFE002010BDFEE7704704204C
:1012800000F0D0B872B6FEE770B50D460446FFF721
:1012900029F8064607F058FC3044291BB0FBF1F250
:1012A00001FB1200204470BD10B590F821100022FF
:1012B000022905D00421816380F82020012010BD7F
:1012C00001680B6823F00E030B6001680B6823F0C4
:1012D00001030B6090F84030C46B012101FA03F365
:1012E000636080F8211080F82020104610BD0000B7
:1012F0002DE9F05F90F821100024022903D0042189
:101300008163012485E001680A6822F00E020A6008
:1013100001680A6822F001020A603F4E3E4FB21592
:10132000DFF8F4C0DFF8F090DFF8ECA0DFF8E8B009
:10133000DFF8E4E00168783F13011502ACF1640CBA
:10134000A9F15009AAF13C0AABF1280BAEF1140E39
:101350004FF48018B14227D9B9420ED0614512D05E
:1013600049451DD0514518D0594518D0714501D176
:10137000424615E0294EB14201D1012210E0274E2C
:101380001436B14201D110220AE0244E2836B1426F
:1013900006D0224A3C32914201D11A4600E02A4648
:1013A0001E49091F0A602BE0B94213D0614517D0CE
:1013B000494522D051451DD059451DD0714501D117
:1013C00042461AE0B14202D14FF0807215E0134E4E
:1013D000B14201D1012210E0104E1436B14201D1C8
:1013E00010220AE00D4E2836B14206D00B4A3C329C
:1013F000914201D11A4600E02A46074980394A60E5
:10140000012180F82110002180F82010416B01B1EA
:1014100088472046BDE8F09F800002400804024053
:1014200070470000044910B50A68024202D0086003
:10143000FFF7F6FF10BD0000140401402DE9F84F3E
:10144000DFF8C8910024A9F1040B23460F2709F106
:10145000040AABF1040ED1E00125A54006EA05021D
:10146000AA4276D1DFF8A8C14E68A6EB0C08664503
:101470002BD00DDC032E34D005DC36B3012E19D071
:10148000022E2FD11BE0112E16D0122E2AD119E0D8
:10149000B8F5881F19D006DCB8F5803F15D0B8F52F
:1014A000801F1FD111E0B8F5001F0ED0B8F5041F42
:1014B00018D10AE0CB6815E0CB681B1D12E0CB68A1
:1014C00008330FE0CB680C330CE08B682BB1012B99
:1014D0004FF0080303D0456104E0042302E00561F6
:1014E00000E00023FF2A01D8064601E000F10406CF
:1014F0004FEA840501D9A5F12005D6F8008007FA46
:1015000005FC28EA0C0803FA05F548EA0508C6F8C0
:1015100000804D68ED0070D53E4DAE6946F0010685
:10152000AE61AD6924F0030605F0010500953A4D62
:1015300006EB050CDCF80850A607360F07FA06F88C
:1015400025EA0805DFF8D480404503D14FF00008B4
:1015500025E052E0DFF8C880404502D14FF0010895
:101560001DE0DFF8C080404502D14FF0020816E0D0
:10157000DFF8B480404502D14FF003080FE0DFF8F8
:10158000AC80404502D14FF0040808E0DFF8A080AD
:10159000404502D14FF0050801E04FF0060808FA77
:1015A00006F848EA0508CCF808804D68D9F80060CC
:1015B000ED024D4601D5164300E096432E604D687E
:1015C000DAF80060AD02554601D5164300E09643B7
:1015D0002E604D68DBF80060AD035D4601D5164313
:1015E00000E096432E604D68DEF80060ED0375461E
:1015F00001D5164300E096432E60641C0A68164627
:10160000E2407FF429AFBDE8F88F000008040140F4
:1016100000001110001002400000014000080140CD
:10162000000C01400010014000140140001801406E
:10163000001C01408068084000D001207047C2684B
:1016400021EA02030A4043EA0241016170470AB1FC
:10165000016170470904FBE701488068704700009A
:101660000C0000200148006870470000E8F7FF1FE9
:101670000148006870470000ECF7FF1F0148006850
:1016800070470000F0F7FF1F02488168027811449C
:10169000816070470C000020074810B5016841F0D8
:1016A00010010160032000F08FF80F2000F006F811
:1016B00000F03EF8002010BD0020024000B50146B9
:1016C00087B00022362000F05FF8362000F04EF898
:1016D0001348C16941F01001C161C06905A900F05A
:1016E00010000690684600F017F900F035F90D4932
:1016F0004000B0FBF1F10D480B4A491E0260416009
:1017000040F2E7320021C0E90321816000F0B5FD1D
:1017100010B1012007B000BD044800F0DDFDF9E77D
:101720000010024040420F000010004074050020ED
:101730000C4808B5816941F001018161816901F0BE
:1017400001010091C16941F08051C161C06900F09F
:10175000805000900448416821F0E06141F0007140
:10176000416008BD0010024000000140002809DB74
:1017700000F01F02012191404009800000F1E020AB
:10178000C0F8001170470000F0B40E4B1B680C4607
:10179000C3F30223C3F10705042D00D90425191D45
:1017A000072901D2002300E0DB1E012606FA05F11D
:1017B000491E214099409E40761E16403143F0BCA0
:1017C00002F033BC0CED00E0064900F007020868A7
:1017D0004FF6FF03184040EA0220034A1043086016
:1017E000704700000CED00E00000FA052DE9F0471D
:1017F0000F46050061D0434E306800F00700B84244
:1018000009D2306820F0070038433060306800F0BB
:101810000700B84251D128683B4C810712D54007D8
:1018200003D5606840F4E06060602878000703D565
:10183000606840F4605060606068A96820F0F00063
:10184000084360602878C00728D06868012810D055
:101850002168022810D0890700292EDA616821F05A
:10186000030101436160FFF7F7FE804641F28839CA
:101870000DE021688903EFE78901EDE7FFF7ECFE52
:10188000A0EB0801494502D90320BDE8F087606854
:10189000696800F00C00B0EB810FEFD1306800F008
:1018A0000700B8420BD9306820F007003843306099
:1018B000306800F00700B84201D00120E5E7287841
:1018C000400705D56068E96820F4E060084360607F
:1018D0002878000706D56068296920F4605040EA3E
:1018E000C100606000F058F86168084AC1F3031154
:1018F000515CC8400649086006480068FFF7DEFEF4
:101900000020C2E70020024000100240309400088E
:1019100018000020100000200F2202600C4A5368BB
:1019200003F003034360536803F0F00383605368DC
:1019300003F4E063C36052684FF4E06303EAD20249
:1019400002610448006800F007000860704700006A
:101950000010024000200240044805490068496820
:10196000044AC1F30221515CC840704718000020AE
:101970000010024040940008044805490068496886
:10198000044AC1F3C221515CC840704718000020CE
:1019900000100240409400080E4A51680E4801F0C1
:1019A0000C03042B11D0082B0FD10C48C1F3834337
:1019B000C903C05C0AD55168084AC1F34041921E70
:1019C000515C054A5043B0FBF1F07047044948436D
:1019D000704700000010024000127A0020940008B6
:1019E00000093D002DE9F84F040070D02078C04D6B
:1019F000C00749D06868C0F38100012807D0686833
:101A0000C0F38100022809D16868C00306D52868A0
:101A1000800339D560680028E7D035E06068B0F50C
:101A2000803F0BD010B1B0F5A02F11D0286820F462
:101A300080302860286820F4802002E0286840F484
:101A400080302860606890B1FFF706FE06460AE025
:101A5000286840F480202860F0E700BFFFF7FCFD15
:101A6000801B642873D828688003F7D50CE0FFF743
:101A7000F3FD064605E000BFFFF7EEFD801B64287E
:101A8000F0D828688003F7D420789A4E80074FF06A
:101A900001094FF0000839D5686810F00C0F07D025
:101AA0006868C0F38100022809D16868C00306D4C1
:101AB0002868800714D52069012808D110E0206922
:101AC000B0B1C6F80090FFF7C7FD074605E00AE190
:101AD000FFF7C2FDC01B0228C4D828688007F7D5CD
:101AE0002868616920F0F80040EAC10028600DE034
:101AF000C6F80080FFF7B0FD074604E0FFF7ACFD35
:101B0000C01B022823D828688007F7D42078000754
:101B10002CD57948A169D9B1C0F80090FFF79CFD98
:101B2000074604E0FFF798FDC01B02280FD8686A3B
:101B30008007F7D571484FF4FA510068B0FBF1F017
:101B4000009000BF0098411E0091FAD20EE080E0A4
:101B5000C0F80080FFF780FD074604E0FFF77CFD3A
:101B6000C01B022875D8686A8007F7D42078400720
:101B700060D5E8690027C00008D4E86940F08050CB
:101B8000E861E869012700F0805000905C48016836
:101B9000C90513D40168834641F480710160FFF7E1
:101BA0005BFD824606E000BFFFF756FDA0EB0A0092
:101BB00064284ED8DBF80000C005F5D5E0680128A0
:101BC0000AD008B1052813D0286A20F00100286245
:101BD000286A20F0040002E0286A40F00100286230
:101BE000E06841F2883B98B1FFF736FD82460BE092
:101BF000286A40F004002862EEE700BFFFF72CFDE2
:101C0000A0EB0A0159455AD8286A8007F6D50CE09E
:101C1000FFF722FD824605E0FFF71EFDA0EB0A015B
:101C200059454CD8286A8007F6D41FB1E86920F0DE
:101C30008050E861E06988B36968C1F381010229D5
:101C400044D00228C6F8608004D0FFF705FD0446A2
:101C500038E034E0FFF700FD074604E0FFF7FCFC46
:101C6000C01B02282BD828688001F7D4206AB0F561
:101C7000803F05D16868A16820F40030084368609F
:101C8000D4E908010843696821F4741108436860C5
:101C9000C6F86090FFF7E0FC044606E025E000BFD0
:101CA000FFF7DAFC001B022809D828688001F7D565
:101CB0001BE000BFFFF7D0FC001B022802D9032065
:101CC000BDE8F88F28688001F4D40EE00128F7D031
:101CD0006868226A00F48031914204D1616A00F49C
:101CE0007010884201D00120EAE70020E8E70000F8
:101CF00000100240000042428004424218000020CE
:101D000000700040704790F85100704738B50446A5
:101D1000006842688168C9434B0606D5CB0704D1E9
:101D2000D3435B0601D4216C05E08B0708D4D34371
:101D30001B0605D4616C01B02046BDE83040084761
:101D40008B0601D54B0646D4D3439B0643D44B06A2
:101D50000AD494F85130032B3ED0636D43F0040352
:101D60006365C36883680093890609D4616D41F097
:101D70000101616581680091016821F04001016005
:101D8000606D002827D02068416821F0E0014160A3
:101D9000012084F85100900722D02068416821F08A
:101DA00003014160104DE06C40B14563E06CFFF70A
:101DB0009FFA18B1606D40F040006065A06C00288B
:101DC00009D04563A06CFFF793FA002803D0606D3B
:101DD00040F04000606538BDC1688068009038BD43
:101DE0002046FFF78FFF38BD8930000870B504002A
:101DF00009D0606A002540B125616561A56294F84B
:101E0000510040B10CE0012070BD6068B0F5827FE8
:101E1000F4D0E561F2E784F85050204600F040F835
:101E2000022084F851002068016821F0400101601F
:101E3000A088218900F4827001F404410843A1893B
:101E400001F400610843217C01F002010843217D77
:101E500001F001010843218B01F400710843217F47
:101E600001F03801084394F8201001F08001084384
:101E7000218D01F40051084321680860A069042104
:101E800001EA1040216848602068C16921F40061BE
:101E9000C1616565012084F85100002070BD00001B
:101EA00030B585B000240094019402940394006836
:101EB000184988422BD11848816941F480518161C9
:101EC000816901F480510491816941F004018161CB
:101ED0008069124D00F004000490A02000900220C0
:101EE00001900320039069462846FFF7A7FA402097
:101EF000CDE90004694628460294FFF79FFA0022C4
:101F000001212320FFF740FC2320FFF72FFC05B021
:101F100030BD0000003001400010024000080140C8
:101F20002DE9F84F984616468A460446FFF794FB7B
:101F3000814694F8510001281ED1BAF1000F73D0E8
:101F4000002E71D094F85000012815D0012784F894
:101F50005070032084F8510000256565C4F830A056
:101F6000A686E686A563A587E58765642564A068DF
:101F7000B0F5004F03D00CE00220BDE8F88F2068D8
:101F8000016821F0400101602068016841F480414E
:101F9000016020680168490603D4016841F04001EE
:101FA0000160E068B0F5006F606803D048B3012EAF
:101FB00027D047E008B1012E1FD1206B216800888F
:101FC000C86006E020688168890709D5216B098807
:101FD000C160206B801C2063E08E401EE0860CE018
:101FE000FFF73AFBA0EB0901414503D3B8F1FF3FEE
:101FF00003D035E0B8F1000F32D0E08E0028E1D1F7
:1020000023E0206B21680078087306E0206881686F
:1020100089070AD5216B09780173206B401C206366
:10202000E08E401EE0860DE02BE0FFF715FBA0EBF5
:102030000901414503D3B8F1FF3F03D010E0B8F1E7
:10204000000F0DD0E08E0028E0D14A4641462046E0
:1020500001F022F808B120206065A06830B109E0E5
:1020600084F8517084F85050032086E72068C168D6
:102070008068009084F8517004F8505F6068002810
:10208000F3D0012079E72DE9FF4F81B01D4693463B
:1020900004464FF001090E9EFFF7DEFA074694F85A
:1020A00051006168012806D0B1F5827F3CD1A1685A
:1020B000C9BB042838D10298002871D0BBF1000FA9
:1020C000FBD0002DF9D094F8500001282CD04FF00F
:1020D000010A84F850A094F85100042802D0052089
:1020E00084F851004FF00008C4F85480C4F838B0A8
:1020F000E587A58702992163E586A586C4F8408017
:10210000C4F8448020680168490603D4016841F09E
:1021100040010160E068B0F5006F606808D0F0B37E
:10212000012D49D081E0FFE7022005B0BDE8F08F26
:1021300008B1012D39D1206B21680088C860206B5F
:10214000801C2063E08E401EE0862EE020688168BF
:1021500089070FD5E18E69B1B9F1010F0AD1216B61
:102160000988C160206B801C2063E08E401EE086E1
:102170004FF0000920688168C9070CD0E18F51B188
:10218000C068A16B0880A06B801CA063E08F401E1C
:10219000E0874FF00109FFF75FFAC01B01E00BE099
:1021A00067E0B04201D3701C50D1E08E0028CDD141
:1021B000E08F0028CAD13EE0206B216800780873C8
:1021C000206B401C2063E08E401EE0862DE02068DE
:1021D000816889070FD5E18E69B1B9F1010F0AD184
:1021E000216B09780173206B401C2063E08E401E38
:1021F000E0864FF0000920688168C9070CD0E18FA4
:1022000051B1C068A16B0870A06B401CA063E08F47
:10221000401EE0874FF00109FFF71EFAC01BB042D5
:1022200002D3701C01D011E086B1E08E0028CED11F
:10223000E08F0028CBD13A463146204600F02CFFF3
:1022400050B12020606584F8508012E084F851A0DD
:1022500084F85080032068E7A06818B92068C16836
:102260008068009084F851A084F85080606D002848
:10227000F1D0012059E77047704710B5040003D032
:1022800094F83D0010B107E0012010BD002084F853
:102290003C00204600F01EF8022084F83D00211D7D
:1022A000206801F099FC012084F8460084F83E0083
:1022B00084F83F0084F8400084F8410084F842002C
:1022C00084F8430084F8440084F8450084F83D0015
:1022D000002010BD7047000090F83D10012901D08A
:1022E00001207047022180F83D100168CA6842F061
:1022F0000102CA6000680E4988420ED00D4988422A
:102300000BD0B0F1804F08D00B49884205D00B4963
:10231000884202D00A49884204D1816801F007014D
:10232000062903D0016841F00101016000207047D7
:10233000002C01400034014000040040000800402F
:10234000000C004070472DE9F04104460068C66863
:1023500005694FF00007A90713D5B10711D5F91E7C
:10236000016101202077206880698007204602D023
:10237000FFF7E8FF04E000F07EF8204600F07CF86C
:102380002777680716D5700714D521686FF0040009
:102390000861022020772068806910F4407F204681
:1023A00002D0FFF7CFFF04E000F065F8204600F010
:1023B00063F82777280715D5300713D521686FF004
:1023C00008000861042020772068C0698007204643
:1023D00002D0FFF7B7FF04E000F04DF8204600F010
:1023E0004BF82777E80616D5F00614D521686FF06C
:1023F00010000861082020772068C06910F4407F31
:10240000204602D0FFF79EFF04E000F034F820469B
:1024100000F032F82777E80708D0F00706D02168E7
:102420006FF001000861204600F028F8280608D562
:10243000300606D521686FF0800008612046FFF75E
:102440001AFF680608D5700606D521686FF04000AF
:102450000861204600F01CF8A8060AD5B00608D589
:1024600021686FF0200008612046BDE8F041FFF7C9
:1024700003BFBDE8F0817047704700000068034962
:10248000884201D1FFF700B97047000000100040FA
:10249000704770477047000070B5044620680C30E4
:1024A00050E8001F21F4907140E80012002AF5D195
:1024B0002068143050E8001F21F0010140E80012AC
:1024C000002AF5D1206B012809D120680C3050E892
:1024D000001F21F0100140E80012002AF5D1206809
:1024E00040694FF0200241064FF0000015D52168E9
:1024F000143151E8003F23F0400341E80035002D3E
:10250000F5D1E16B49B109484863E06BFEF7F0FE95
:1025100050B1E06B416B884706E0E08584F84220CB
:1025200020632046FFF7B6FF002070BD853C000801
:1025300070470000F8B5016804460868CA684B692E
:1025400010F00F0F4FF0000559D003F0010602F410
:102550009077374365D0C10705D0D10503D5616CAD
:1025600041F001016164410705D5D90703D0616CD1
:1025700041F002016164810705D5D90703D0616C80
:1025800041F004016164010707D502F020013143E5
:1025900003D0616C41F008016164616C00293AD09C
:1025A000800604D5900602D5204601F09DFB2068E8
:1025B0004069616CC0F38010090700D460B3204605
:1025C00001F06BFB20684069400621D5206814307B
:1025D00050E8001F21F0400140E80012002AF5D128
:1025E000E06BA8B16D494163E06BFEF781FE002806
:1025F00011D0E06B416B01B0BDE8F04008478306A5
:102600000FD593060DD52046BDE8F84001F06CBB10
:102610002046FFF78DFFF8BD2046FFF789FF656470
:10262000F8BD266B2023012E7CD1C6067AD5D606AE
:1026300078D508684868009048694FF0020640065F
:1026400040D5E16B086840680004000CE8D0A28D1A
:102650008242E5D9E085886920282DD020680C3099
:1026600050E8001F21F4807140E80012002AF5D1E3
:102670002068143050E8001F21F0010140E80012EA
:10268000002AF5D12068143050E8001F21F04001E5
:1026900040E80012002AF5D184F842302563206812
:1026A0000C3050E8001F21F0100140E80012002A11
:1026B000F5D1E06BFEF7F8FD6663A08DE18D401A61
:1026C00081B22AE0A08DE18D401A81B2E08D002810
:1026D000A6D00029A4D022680C3252E8000F20F4C2
:1026E000907042E80007002FF5D12068143050E8C0
:1026F000002F22F0010240E80027002FF5D184F8D6
:102700004230256320680C3050E8002F22F0100280
:1027100040E80023002BF5D166632046FFF7B9FEA1
:10272000F8BDFFE705062BD5150629D594F841001D
:102730002128F5D1A068B0F5805F01D12069B0B142
:10274000206A411C2162216800784860E08C401EAC
:102750000004000CE084E3D12068C16821F080010E
:10276000C1602068C16841F04001C160D8E7206ABB
:102770000088C0F308004860206A801C2062E5E7FA
:102780004006CDD55006CBD5CA68204622F040027F
:10279000CA6084F8413000F00BF9C1E7753C0008CD
:1027A00070B5040004D094F84100002510B106E093
:1027B000012070BD84F84050204600F023F824200A
:1027C00084F841002068C16821F40051C1602046AE
:1027D00001F0ECFA2068016921F490410161206860
:1027E000416921F02A0141612068C16841F400512A
:1027F000C1606564202084F8410084F8420065636C
:10280000002070BD70B586B000240094019402943D
:10281000039403682E482D4E022103220515B3426E
:1028200026D1836943F480438361836903F4804341
:102830000493836943F0040383618069254E00F0AB
:10284000040004900802CDE9000103926946304675
:10285000FEF7F4FDCDE90054694630460294FEF7D8
:10286000EDFD002203212520FEF78EFF252028E024
:10287000194EB34227D1C36943F48023C361C369AE
:1028800003F480230493836943F008038361806920
:10289000CDE9005100F00800CDE903200F4D694655
:1028A0002846FEF7CBFDE814CDE90004694628462A
:1028B0000294FEF7C3FD002206212720FEF764FFE5
:1028C0002720FEF753FF06B070BD0000003801401E
:1028D000001002400008014000480040000C014088
:1028E00090F84230202B01D00220704721B11AB15C
:1028F0000023036301F0B6BA01207047034A016860
:10290000914201D100F04EBA7047000000480040EB
:102910002DE9F843044690F84100984616460D46C6
:10292000202802D00220BDE8F88385B17EB10020C6
:102930006064212084F84100FEF78EFEA684814663
:10294000E684A0682027B0F5805F02D003E0012074
:10295000E9E7206910B12E4600250EE000260CE0C4
:102960008021204601F099FAA8B9C6B116F8010BEA
:1029700021684860E08C401EE084E08C4B464FF0BC
:102980000002CDF800800028EAD14FF04001204637
:1029900001F083FA40B184F841700320C3E735F8B1
:1029A000020BC0F30800E3E784F841700020BAE7A7
:1029B0007047000010B500F021F84B2201464B286B
:1029C00004DD03A005F054FA012010BD002010BD65
:1029D0005B43534D415D20427573792120437572ED
:1029E00072525353493A202564203E205468726540
:1029F00073686F6C643A2025640A00001B2101484B
:102A000000F0DBBCE005002010B586B01FA005F08B
:102A10002FFA254823490422C0E902211022C0E9E7
:102A200004214160082101602049816100F12001F9
:102A30000722086000204021CDE90220CDE90401F1
:102A400003210120CDE900011748194A0023203055
:102A500000F0F1FD14484221203000F0AEFC0446A5
:102A6000014614A005F004FA122C06D01DA005F0B2
:102A7000FFF94FF0FF3006B010BD002124A005F093
:102A8000FCFA264908600020F5E7000053746172E3
:102A900074696E67204C6F526120496E69742E2EE6
:102AA0002E0A000000080140C00500208C04002010
:102AB000400ECF194C6F526120436865636B3A201A
:102AC00052656756657273696F6E203D20307825B8
:102AD0003032582028457870656374203078313260
:102AE000290A00004C6F5261204572726F723A20C1
:102AF000486172647761726520636F6E6E6563749E
:102B0000696F6E206661696C6564210A00000000CF
:102B10006C6F72615F6D7478000000001C00002013
:102B20002DE9F041144C07460E46206818B14FF0CD
:102B3000FF3105F009FB394610A005F099F94FF473
:102B4000FA652B4632463946114800F0B8FD012897
:102B50000ED010A005F08CF92A4640210C4800F058
:102B600012FB2068002805D0BDE8F04105F09ABAB4
:102B70000FA0EFE7BDE8F0811C0000204C6F526110
:102B80002053656E64696E673A2025730A00000061
:102B9000E00500204C6F5261205458204661696C5A
:102BA0006564206F722054696D656F75742E0A001C
:102BB0004C6F526120545820446F6E652E0A0000FD
:102BC0002DE9F04F85B0002441480094019402940F
:102BD0000394816941F040018161816901F0400104
:102BE0000491816941F004018161816901F004016E
:102BF0000491816941F008018161816901F0080156
:102C00000491816941F0100181618069DFF8C4900D
:102C100000F010000490002220214846FEF717FD26
:102C2000DFF8B4A0012218215046FEF710FDDFF8AE
:102C3000ACB04FF47078002241465846FEF707FDCD
:102C4000002220212648FEF702FD2027022601252A
:102C500000970396CDE9015469464846FEF7EEFB1E
:102C6000042000901F48CDE9010669465046FEF752
:102C7000E5FB0820CDE90005CDE90246694650464E
:102C8000FEF7DCFB1020CDE900050320CDE9024072
:102C900069465046FEF7D2FBCDF800800396CDE999
:102CA000015469465846FEF7C9FB00970396CDE9E3
:102CB000015469460A48FEF7C1FB002202210820A0
:102CC000FEF762FD0820FEF751FD05B0BDE8F08F6C
:102CD00000100240001801400008014000100140AF
:102CE000000C014000001110104810B50E490160A1
:102CF0004FF48271416000218160C1604FF4007225
:102D00000161C0E905121822C0E907214162816210
:102D10000A21C162FFF76AF8002803D0BDE810401D
:102D2000FEF7B0BA10BD0000003001408C04002056
:102D30000C4810B50A4901604FF4E13141600021AF
:102D400081600C22C160C0E904128161C161FFF79A
:102D500027FD002803D0BDE81040FEF793BA10BD50
:102D600000380140E40400200C4810B50A49016015
:102D70004FF4E1314160002181600C22C160C0E963
:102D800004128161C161FFF70BFD002803D0BDE88B
:102D90001040FEF777BA10BD004800402C05002017
:102DA000FEE7FEE72DE9F041A4B00A230C2267A15B
:102DB0006A48FFF7ADFDDFF8A88198F8000008B376
:102DC000684C04AE20468179457A037AC27986E858
:102DD0002E00817845790379C2788DE82E004378FA
:102DE000027861A108A801F0F9F808A8FDF7C8FA6F
:102DF00082B2642308A95948FFF78AFD2278A52AE0
:102E000004D006E00A23132266A194E0607A5A28CF
:102E100002D0637A68A185E054F8015F66683046A5
:102E2000FDF764FC04460F462846FDF75FFCCDE93C
:102E3000004702460B466AA108A801F0CFF808A88F
:102E4000FDF79EFA82B2642308A94448FFF760FDAB
:102E500031462846FDF720FB074601464546D8F88F
:102E60000C00FDF7C7FA6749E860884202DC664952
:102E7000884200D9E96038462969FDF70DFB6349AE
:102E8000FDF710FB06466249E868FDF70BFB0446B8
:102E900060493846FDF706FB2146FDF7ABFA31469F
:102EA000FDF7A8FA04465C482F61844202DC5B48C7
:102EB000844200D904462046FDF718FC06460D461C
:102EC0003846FDF713FC564B0022CDE90623554B3F
:102ED0004FF08042CDE90423534B5200CDE9022349
:102EE000CDE9006502460B4650A108A801F076F82E
:102EF00008A8FDF745FA82B2642308A91748FFF72E
:102F000007FDA5208DF88400CDF885405A208DF866
:102F100089000A23062221A95248FFF7F9FC32460C
:102F20002B4651A108A801F059F808A8FDF728FA86
:102F300082B2642308A90948FFF7EAFC0A2209497A
:102F40004848FFF7CDFC24B0BDE8F0815B43414C1D
:102F50004C4241434B5D0D0A00000000E404002098
:102F600024000020F80600205B52585D20253032F6
:102F700058202530325820253032582025303258FC
:102F80002025303258202530325820253032582024
:102F900025303258202530325820253032580D0A3D
:102FA000000000005B4E4F54204D41544C414220E4
:102FB0004D4F44455D0D0A005B4552525D204672FF
:102FC000616D6520696E76616C69643A2020483DC8
:102FD000253032582C20543D253032580D0A00003F
:102FE0005B50415253455D205461726765743D25C5
:102FF0002E32662C2043757272656E743D252E321A
:10300000660D0A000000FA430000FAC30000704198
:103010000AD7A33B14AEC73E00007A4400007AC42E
:1030200000002E40E17A743FC2F5D83F5B5049441E
:103030005D204572723D252E32662C204F75743D01
:10304000252E326620284B703D252E32662C4B698A
:103050003D252E34662C4B643D252E3266290D0A03
:10306000000000002C0500205B54585D2053656E65
:10307000743A2020252E32660D0A00000148FEF722
:1030800045BE00008C04002010B5406A0021C187B5
:10309000C186FEF737FE10BDF8B515460E460B4645
:1030A000009204460122022100F010F840B9334694
:1030B000002280212046009500F008F8002804D066
:1030C000606D40F0200060650320F8BD2DE9F843F5
:1030D0001E46914688460446089DFEF7BDFA401BF1
:1030E000351AFEF7B9FA074625480068C0F3CB3019
:1030F000684338E0701C37D0FEF7AEFAC01BA84218
:1031000003D215B1009860B32CE02068416821F02B
:10311000E00141606068B0F5827F0BD1A068B0F536
:10312000004F02D0B0F5806F04D12068016821F013
:1031300040010160A06AB0F5005F09D12068016814
:1031400021F4005101602068016841F400510160E0
:10315000012084F85100002084F850000320BDE8CD
:10316000F8830025401E00902068816838EA01003D
:1031700004D000214945BDD10020F0E70121F9E745
:1031800018000020704770B50D460446417500F0E8
:1031900041F984224D21204600F01EF9FF2224210E
:1031A000204600F019F901224021204600F014F9D0
:1031B0003F221121204600F00FF9204600F025F9AA
:1031C0002A462221204600F007F90F21204600F070
:1031D000F4F802460D21204600F0FEF88D22012170
:1031E000204600F0F9F8002084F817010320A075AC
:1031F000012070BD70B516460C460546417500F0BD
:1032000009F987224D21284600F0E6F80022242102
:10321000284600F0E1F841224021284600F0DCF881
:10322000284600F0F2F8F7221121284600F0D4F8E1
:1032300022462221284600F0CFF80E21284600F031
:10324000BCF802460D21284600F0C6F82221284687
:1032500000F0B3F8A04203D10220A875012070BD90
:10326000761EF3D1286800F089F9284600F0D2F8DC
:10327000002070BD70B50446006800F075F908B311
:1032800004F117004FF480710646FDF756F810213F
:10329000204600F092F802460D21204600F09CF8EE
:1032A000607C90B11321204600F087F805462B463C
:1032B00032460021204600F03CF884F817512046A1
:1032C00000F0A3F894F8170170BD657DEFE770B5C5
:1032D0001D4613460A460446002100F04BF88B2297
:1032E0000121204600F078F8206800F03DF958B13F
:1032F0001221204600F061F8204600F086F82046B2
:1033000000F0D4F9012070BD6D1E03D0012000F043
:1033100029F9E9E7206800F031F9204600F07AF851
:10332000002070BD10B51B2100F047F80A38C0B26C
:1033300010BD2DE9F0411E4617460C460546012BEF
:1033400016D90021286800F05FF92146286800F0AE
:103350002DF9002404E000F03BF93855641CE4B278
:103360002868B442F7D3BDE8F041012100F04CB920
:10337000BDE8F0812DE9F0411E4617460C46054692
:10338000012B18D90021286800F03EF944F0800193
:10339000286800F00BF9002405E0395D286800F08A
:1033A00005F9641CE4B2B442F7D32868BDE8F041E3
:1033B000012100F029B9BDE8F08170B5044600682C
:1033C00000F0F4F8206800F003F9054601212068B8
:1033D00000F01AF9284670BD70B50D460446164631
:1033E0000068002100F010F945F08001206800F02D
:1033F000DDF83146206800F0D9F82068BDE870405B
:10340000012100F001B9FFF735BFFF221221FFF7BC
:10341000E3BF0000F8B5044600F03FF90F2000F0CC
:10342000A1F8204600F09AF8A189A068C90441EAF1
:103430005031C004474A0023FCF712FF020C42EA55
:1034400001428DF800200A0642EA10218DF8011091
:103450008DF8020003236A4606212046FFF78AFF03
:10346000122239212046FFF7B7FF207C3A490A5C37
:1034700009212046FFF7B0FF0B2211462046FFF737
:10348000ABFF23220C212046FFF7A6FF324D607CC4
:103490000835E91D2A5C281F861F062AA27C895C44
:1034A000E27C4FEA0111805C01EB400030D0C2B2F7
:1034B0001D212046FFF790FF607C217D285C715C18
:1034C000000100EB8100C2B21E212046FFF784FFFD
:1034D000042226212046FFF77FFF08221F212046D5
:1034E000FFF77AFF002220212046FFF775FF082210
:1034F00021212046FFF770FF012241212046FFF7DE
:103500006BFF002084F81701204600F0CFF8F8BDCB
:10351000401CC2B21D212046FFF75EFF607C217D6A
:10352000285C715C000100EB8100C01CC2B21E214E
:103530002046FFF751FF31212046FFF73EFF00F004
:10354000F80040F0050231212046FFF745FF0C222C
:103550003721BAE70048E801589400088822012181
:10356000FFF73ABF05F012BA10B50189C06889B2F9
:10357000FEF760F8012800D0002010BD10B5044609
:10358000012100F041F82088002281B26068FEF736
:103590005EF80120FFF7E6FF2088012281B2606813
:1035A000FEF755F86420FFF7DDFF10BD13B50446A4
:1035B000002100F029F84FF47A73012201A9A069D3
:1035C000FEF7AEFCA069FEF79EFB0128FAD11CBDF8
:1035D0003EB5044600208DF808008DF80400014631
:1035E000204600F011F84FF47A700090012301AAF0
:1035F00002A9A069FEF747FDA069FEF784FB012838
:10360000FAD19DF804003EBD012905D00022018AAF
:10361000406989B2FEF71BB80122F8E710B50446ED
:103620000121FFF7F1FF2088012281B26068BDE827
:103630001040FEF70CB82DE9F05F04460AA81546C5
:1036400090E8800F1E462068FFF7E8FFC4E90256A5
:10365000277484F8118084F8129084F813A084F8F9
:1036600014B00F9860752046BDE8F05FFFF7D2BE3A
:1036700070B5054690F8170114460E46A04200D0DA
:103680000446224605F117013046FCF73DFE0020B6
:10369000305585F81701204670BD10B50446082244
:1036A0000121FFF799FE0020A07510BD10B504465A
:1036B00009220121FFF790FE0120A07510BD2DE920
:1036C000F04115460E461C4607461A462946FFF7A6
:1036D00091FD002807D023462A4631463846BDE8EA
:1036E000F041FFF7F4BDBDE8F0810000F0B53948C6
:1036F00091B00024016838480068FCF7CDFE05460B
:1037000010F1FF4F01D380F000453448854201DDC0
:10371000012700E00027AB208DF8000002208DF883
:1037200001002F4880788DF8020000208DF80300FA
:1037300006208DF80500FDF795FF0646FDF798FF7A
:103740004640FDF79BFF4640CDF806608DF80A70B5
:103750002846FCF7B7FF8DF80B00314621A004F096
:1037600087FB0C25142005F011F94FF4487600BFB3
:10377000FFF720F9002816D02148FFF7D3FD0146B6
:1037800020A004F075FB31466420FDF77DFD05F0B7
:10379000FDF8641CE4B2032CEAD3032125A004F055
:1037A00067FB11B0F0BD611C32A004F061FB4FF467
:1037B000FA64224629461248FFF71CFD23462A4692
:1037C00069460F48FFF783FD224640210C48FFF76A
:1037D000DAFCE6E704000020000000200000404082
:1037E0009C0300204D7920486172647761726520E6
:1037F0005549442069733A203078253038580A00FA
:10380000E00500205B43534D415D204368616E6ECF
:10381000656C20427573792028525353493A2564C8
:10382000292E204261636B696E67206F66662E2EBB
:103830002E0A00005B43534D415D204661696C6573
:103840006420746F2073656E64204A4F494E206176
:103850006674657220256420726574726965732EC2
:103860002057616974206E65787420426561636FCA
:103870006E2E0A005B43534D415D204368616E6EBE
:10388000656C20467265652E2053656E64696E67AF
:10389000204A4F494E2028547279202564292E2E23
:1038A0002E0A0000F0B5A1B0AB208DF80000544CFA
:1038B00004208DF80100A0788DF8020000208DF81A
:1038C00003009DF804004FF07C51401C8DF804006B
:1038D00011208DF80500E068FCF78CFD4949E06097
:1038E000884201DD4848E0600546CDF806004748BB
:1038F000CDF80E004648CDF80A004648CDF8120033
:1039000001208DF8160017262846FCF7C2FE074650
:10391000FCF7B6FE2946FCF7C2FD3F49FCF7C2FDA5
:10392000FCF7B7FE03463A46E1783CA004F0A0FA63
:103930004FF4FA652A4631464548FFF75BFC2B46B3
:10394000324669464248FFF7C2FC42A004F090FAB2
:103950002A4640213E48FFF716FC05F0F5F80646DA
:10396000AF103DE03A48FFF74EFD002835D0402229
:1039700010A93748FFF77CFE002829DD9DF840009C
:10398000AB2825D19DF84100052821D19DF84300A1
:10399000A17888421CD1DDF84700FCF7A7FE9DF80E
:1039A000464002460B46214635A004F061FA9DF8D8
:1039B0004600012819D13D48DDF847100160006834
:1039C000FCF794FE02460B4639A004F051FA0CE0D5
:1039D0002A4640211E48FFF7D6FB052004F0D6FFFB
:1039E00005F0B2F8801BB842BCD33AA004F040FA0C
:1039F0002A4640211648FFF7C6FB21B0F0BD000063
:103A00009C030020000020420000A0410000704202
:103A10000000C8410000C842000020415B4E4F44F6
:103A2000455D2053656E64696E6720446174612052
:103A3000696E20536C6F742025642E2E2E205465E1
:103A40006D703A2025642E256420430A0000000092
:103A5000E00500205B4E4F44455D204461746120C9
:103A600053656E742E2057616974696E6720666FA6
:103A7000722041434B2F434D442E2E2E0A0000004E
:103A80003E3E3E205B4354524C5D2052656376209F
:103A9000436F6D6D616E642120547970653A2564C1
:103AA0002C2056616C3A252E31660A002000002039
:103AB000202020202D3E20557064617465205461C3
:103AC000726765742054656D7020746F20252E31E7
:103AD000660A00005B4E4F44455D205258205769EE
:103AE0006E646F7720436C6F7365642E0A0000006C
:103AF00010B504F06FF905F02DF8BDE8104004F0A2
:103B000077B930B58FB028216846FCF716FC142130
:103B10000AA8FCF712FC01210804CDE900100024DA
:103B2000029402250491CDE907504FF4E01009906A
:103B30006846FDF757FF08B172B6FEE70F20CDE9E2
:103B40000A054FF48060CDE90C4002210AA80E94CA
:103B5000FDF74CFE002801D072B6FEE70FB030BD75
:103B6000144910B54868144A10F00C03134803D0E8
:103B7000042B01D0082B09D002604968104AC1F318
:103B80000311515C0268CA40026010BD4A684B686C
:103B900002F470124FF0020413F4803F04EB9242DF
:103BA00002D04B689B0301D5064B00E0024B5A4301
:103BB000E2E700000010024000127A001800002026
:103BC0003094000800093D00704700000148FEF7EE
:103BD000BABB000074050020F0B50268204C214DEE
:103BE000214E224F224B4FF0804CA04209D09842E8
:103BF00007D0604505D0A84203D0B04201D0B842FA
:103C000004D122F0700E4A6842EA0E02A04209D0A6
:103C1000984207D0604505D0A84203D0B04201D0F9
:103C2000B84203D122F44075CA682A434D6922F094
:103C300080022A4302608A68C2620A688262A042E5
:103C400001D0984201D109690163012141610169F3
:103C5000C90703D0016921F001010161F0BD000035
:103C6000002C01400004004000080040000C00400F
:103C70000034014010B5406A0021C185C184FEF7BF
:103C800057FC10BD10B5406A0021C185202280F884
:103C900042200163FEF7FEFB10BD01680C3151E8C4
:103CA000002F22F4907241E80023002BF5D1016827
:103CB000143151E8002F22F0010241E80023002BCB
:103CC000F5D1016B012909D101680C3151E8002FB0
:103CD00022F0100241E80023002BF5D1202180F8CA
:103CE000421000210163704708B590F84210222964
:103CF00001D0022008BD82684FF480539A4201D15E
:103D0000016921B1816A9A421BD04AB10AE0026876
:103D1000816A5268C2F308020A80816A891C08E03D
:103D2000026972B10268526802F07F020A70816A09
:103D3000491C8162C18D491E0904090CC18503D04B
:103D40001BE002685268F1E70168CA6822F02002AD
:103D5000CA600168CA6822F48072CA6001684A6950
:103D600022F001024A61202180F8421000214163C3
:103D7000026B012A03D0FEF7C1FD002008BD0163DC
:103D800001680C3151E8002F22F0100241E80023B5
:103D9000002BF5D101680A68D20602D50A68496885
:103DA0000091818DFEF775FBE7E7000070B50446D2
:103DB00000680169E26821F4405111430161216901
:103DC000A0680843616908432168CA6841F20C632E
:103DD0009A430243CA6020684169A26921F4407194
:103DE000114341611E492068884202D1FDF7C4FD9C
:103DF00001E0FDF7B1FD00EBC00101EB00126068CE
:103E000064218000B2FBF0F3B3FBF1F36FF018060E
:103E10007343B2FBF0F5B2FBF0F605EB83053223FA
:103E200003EB0515B5FBF1F5B6FBF1F605F0F00572
:103E300005EB0615B2FBF0F6B2FBF0F0B0FBF1F0CB
:103E40006FF01802504306EB800003EB0010B0FB4C
:103E5000F1F0216800F00F002844886070BD000078
:103E60000038014081628285C2850021416422219F
:103E700080F84210016921B10168CA6842F4807279
:103E8000CA6001684A6942F001024A610068C1687B
:103E900041F02001C160002070472DE9F8439846A9
:103EA00017460D460446089E24E0701C22D0FDF7FC
:103EB000D3FBA0EB0800B0421AD8CEB12068C1688D
:103EC000490717D5802D15D0402D13D00168C9435F
:103ED00009070FD401680025406800902046FFF7CD
:103EE000DCFE0820606484F840500120BDE8F883BF
:103EF0000320FBE72068006835EA000004D00020BA
:103F0000B842D2D00020F1E70120F9E70148FEF7DE
:103F100011BB0000E40400200148FEF70BBB0000C9
:103F20002C050020FEE700001CB50A210F20CDE97A
:103F300000014FF400630022074908A004F020FCB0
:103F40000949086018B104F06DFD08A000E00FA059
:103F5000BDE81C4003F08CBFC56000086C6F726147
:103F60005F6E6F6465000000080000205B4D6169B2
:103F70006E5D204C6F5261204E6F64652041707001
:103F800020537461727465642E0A00005B4D616990
:103F90006E5D204572726F723A204C6F5261204EF6
:103FA0006F64652054687265616420437265617452
:103FB00065204661696C6564210A00000FB4054BF9
:103FC00010B503A9044A029800F0B2F910BC5DF8DC
:103FD00014FB0000D35200087C0400200FB4084BEF
:103FE00010B504A902AA039800F0A2F9044602A998
:103FF000002000F072FD204610BC5DF814FB0000AC
:10400000DB4A00084100080218BF04200A0E18BF4E
:1040100040F001004FF07F4232EA010108BF40F05A
:104020000200012808BF052070470907090E002873
:1040300004DB00F1E02080F80014704700F00F006E
:1040400000F1E02080F8141D704700000048704720
:104050008804002000214FF07E50FCF755BA012162
:10406000FCF790BAFCF7C6B900210846FCF74CBA39
:1040700061214FF0E040FCF785BA6FF05E01080760
:10408000FCF780BA014800687047000088040020EF
:10409000002806D00E4910F0FF0F03D0C0B2085C14
:1040A000401C704710F47F4F04D0C0F30720085C19
:1040B0000930704710F47F0F04D0C0F30740085C4C
:1040C0001130704701EB1060007819307047000024
:1040D0009194000802E008C8121F08C1002AFAD112
:1040E00070477047002001E001C1121F002AFBD178
:1040F00070470000014908607047000088040020F4
:104100002DE9FF5F82B00021DDE90430020DDDF80A
:1041100040B0034318D044F61050A2F2FF3242439D
:104120001514119801281FD0A5EB0B00401C5FEA65
:10413000000A4FF000064E4FDFF83891B046504667
:1041400015D5CAF1000413E0119801244AA30128EF
:1041500001D16FEA0B010298119AC0E90031C0E960
:10416000024206B0BDE8F09FCBF10000DFE7044655
:104170000021404A491842EB0450CDE9001012E0FA
:10418000E00707D032463B4640464946FCF706FA70
:104190008046894632463B4610461946FCF7FEF9F2
:1041A00006460F466410002CEAD1DDE90401DDE982
:1041B0000023BAF1000F06DAFCF7F0F942464B464D
:1041C000FCF7ECF905E0FCF7DAFC42464B46FCF75D
:1041D000D6FC04460E460022284BFCF77DFD03D892
:1041E0004FF0FF30014607E00022254B20463146C4
:1041F000FCF71EFCFCF732FD102409E0002C0ADB62
:104200000A220023FCF72CF8039B30321A55641E57
:1042100050EA0102F2D1641C039AC4F11103144460
:10422000119A012A03D0012208430DD10AE0084364
:1042300004D000204FF0110B119072E7A3EB0B0597
:104240006D1E0DE05B4504DD4FF0000205F1010538
:1042500004E003DA4FF00002A5F10105002AECD0DA
:1042600002981199C0E90231C0E9004579E70000E0
:10427000000014400000F03F300000000000F04358
:104280000000E03F30380A2801D2012070470020AA
:10429000704700002DE9F04F89B092468B460646E4
:1042A000002400E0641C305D202803D0092801D0E0
:1042B0005C45F7D34FF0FF387CB3194804F1060989
:1042C000184F056811E0062217A12868FCF776F858
:1042D00050B9286822463146801DFCF76FF818B99E
:1042E000296811F8090020B10C3538688542EAD3F5
:1042F00014E0AC688CB120216846FCF71EF86A46D1
:104300005946304602F014FC38B16946A047CAF855
:104310000000002009B0BDE8F08FFFE74046F9E754
:10432000C0030020C40300205F5F636D645F000072
:104330002DE9FF4F95B09A46884606460025EEE1E6
:10434000252877D100242746F94A0121039400E06B
:10435000044316F8013F203B01FA03F01042F7D165
:1043600030782A2811D06FF02F033078A0F1300276
:10437000092A16D8039A44F0020402EB820203EBE6
:1043800042021044761C0390EFE758F8042B039286
:10439000002A03DA504244F40054039044F002042B
:1043A000761C30782E2816D116F8010F44F004043C
:1043B0002A280DD06FF02F023078A0F13003092B9E
:1043C00009D807EB870302EB4303C718761CF3E712
:1043D00058F8047B761C30786C280FD006DC4C280B
:1043E00017D068280DD06A2814D104E0742810D0A2
:1043F0007A280FD10DE044F400140AE044F480144C
:1044000001E044F440147278824202D104F5801431
:10441000761C761C307866280BD013DC582877D0B1
:1044200009DC002875D04528F6D04628F4D0472866
:104430001AD193E118E0632835D0642879D0652833
:1044400012D18BE1702873D008DC6728F1D069287D
:104450006FD06E280DD06F2806D1ACE073282CD019
:10446000752874D0782853D05246179990476D1C00
:1044700054E1C4F30250022809D003280DD0D8F823
:10448000001004280DD00D6008F1040846E1D8F8AA
:104490000010EA17C1E90052F6E7D8F800100D80C5
:1044A000F2E70D70F0E718F8041B8DF800100020FB
:1044B0008DF80100EB46012003E058F804BB4FF0F3
:1044C000FF3061074FF0000102D40DE009F1010156
:1044D0008946B9420FDA8145F8DB1BF8091000293B
:1044E000F4D108E009F1010189468142FADB1BF8A9
:1044F00009100029F6D103985346A0EB090721467D
:104500003846179A00F080FA284400EB090507E0C6
:1045100044E008E10DE01BF8010B52461799904763
:10452000B9F10109F7D2534621463846179AF2E00D
:1045300039E00A21C4F302524FF0000B0091022A25
:1045400006D058F8040BC117032A09D00AE023E06B
:1045500008F1070020F00702F2E80201904605E0AA
:1045600000B2C117042A01D140B2C117002906DAEE
:104570000A460021404261EB02012D2202E02205A1
:1045800004D52B228DF80420012203E0E20701D09C
:104590002022F7E7914657E00A2100E010214FF072
:1045A000000B00910BE010214FF0000B44F00404CD
:1045B0000827009103E008204FF0000B0090C4F39F
:1045C0000252022A05D058F8040B0021032A08D011
:1045D00008E008F1070020F00702F2E80201904627
:1045E00003E080B2042A00D1C0B24FF000092207D4
:1045F0002AD53278702A07D0DDF800C08CF0100C74
:104600005CEA0B0C05D00EE040228DF8042001225C
:1046100008E050EA010306D030238DF804308DF80D
:10462000052002229146009B83F0080353EA0B0306
:104630000AD150EA010201D1620705D530228DF876
:1046400004204FF001097F1E3278582A04D039A285
:104650000C920CAA02920BE03BA2F9E75B46009A8F
:10466000FBF7FEFD0C9B9B5C029A521E029213709C
:1046700050EA0102F2D1029804A9081A00F1200BB5
:10468000600702D524F4803400E001275F4502DD95
:10469000A7EB0B0000E0002000EB0B01009003985B
:1046A0004944401A0390E00306D453462146179A22
:1046B000039800F0A9F90544002706E001A8524636
:1046C000C05D179990476D1C7F1C4F45F6DBE003DA
:1046D0000CD553462146179A039800F095F90544E6
:1046E00004E030205246179990476D1C0099481EEF
:1046F00000900029F5DC08E0029802995246007803
:10470000491C0291179990476D1CBBF10001ABF158
:10471000010BF1DC5BE100F065F90544761C3078B3
:1047200000287FF40DAE19B02846BDE8F08F0000D8
:104730000928010030313233343536373839616277
:10474000636465660000000030313233343536373B
:10475000383941424344454600000000600700D418
:10476000062708F1070020F00700F0E80223804642
:1047700003F0004C5FEA0C0001D097A009E020058F
:1047800001D596A005E0E00701D095A001E0AFF2C9
:104790004C001390307823F0004365280CD006DCE1
:1047A000452809D046281DD047287FD13BE0662800
:1047B00018D067287AD136E00021112F01DB1120B3
:1047C00000E0781CCDE9000104A90CA8FFF798FCD3
:1047D000DDE90D010C9A4FF0000B07F10109109271
:1047E00000914EE04FF000400097CDE9011004A980
:1047F0000CA8FFF785FCDDE90D020C9B0F994FF02B
:10480000000B91461093009211B9791C00EB01093D
:10481000B7EB090003D4C0F1FF3B07F10109A9EB95
:104820000700019042E0012F00DA01270021112F3B
:1048300001DD112000E03846CDE9000104A90CA8F3
:10484000FFF75EFCDDE90D010C9A00914FF0000BC3
:10485000B946109221070FD4009A4A4503DA9146CF
:1048600001E0A9F10109B9F1010F05DD109AA9F1E3
:104870000101515C3029F4D0B84202DA10F1040F82
:1048800003DA0121CDE9011010E0002803DC8344A4
:10489000A9EB000102E0411C494500DD8946A0EB7F
:1048A0000B00401C01904FF000400290200705D4FF
:1048B0000198484502DB4FF0FF30019000208DF851
:1048C0004B0002980DF14B07B0F1004F25D00220AC
:1048D0000C902B200D90029800280CDA4042029098
:1048E0002D200D9007E00A210298FBF743FF30319D
:1048F000029007F8011D0C99481E0C900029F2DC6B
:1049000002980028EFD1791E0D980870307800F0D9
:10491000200040F0450007F8020D11A8C01BC01D83
:1049200002901398007800B1012000EB0901019872
:1049300001EBE071029801440398401A401E039075
:10494000E00306D453462146179A039800F05CF81A
:1049500005441398007818B15246179990476D1C7A
:10496000E00323D553462146179A039800F04CF8EC
:1049700005441BE0BBF1000F07DB0098584504DD40
:104980001098179910F80B0001E017993020524643
:10499000904701980BF1010B401E05F101050190B4
:1049A00004D12E205246179990476D1CB9F1000191
:1049B000A9F10109DEDC05E017F8010B5246179951
:1049C00090476D1C0299481E02900029F4DC534662
:1049D0002146179A03989EE62D0000002B00000048
:1049E000200000002DE9F041044600251E46174630
:1049F000880404D405E039462020B0476D1C641EAD
:104A0000F9D52846BDE8F0812DE9F041044600259E
:104A10001E469046C80301D5302700E020278804B1
:104A200004D505E041463846B0476D1C641EF9D5F3
:104A30002846BDE8F08100002DE9FC411F460446F0
:104A4000DDE90831DDE90A65143040600060C4E941
:104A50000827C4E90A310A46232118461C3403F00A
:104A6000E9FAD4E903014218D4E90101104B121FFD
:104A700003F094F944F81A0B002004F801690D4A78
:104A800004F8036BE4E8020544F8105901C404F883
:104A90003C0B01C444F87409009023460190194668
:104AA00004F1440004F0EAF80020BDE8FC810000B5
:104AB00075880008938A000810B5029C24F0010450
:104AC0004472C0E907120021C0E909311430406086
:104AD000006010BD143003F012BA0A68531C0B605A
:104AE0001070704770B50546FBF740FB296F044610
:104AF00009B1284688472046BDE87040FBF73ABB1D
:104B000010B5012A05D0022A07D0BDE8104000F0F8
:104B1000BFBBBDE81040FBF7C5BCFBF76BFC4FF01B
:104B20007E51FBF7B9FC0146BDE81040002000F0C3
:104B30009BBB30B583B00446FFF7A4FA05460020BE
:104B4000CDE90000024621466846FBF754FE2846A0
:104B5000FFF7D0FADDE9000103B030BD10B51BA0AE
:104B600003F086F91C4C21781CA003F081F9207811
:104B7000C00702D01FA003F07BF92078800702D580
:104B80001FA003F075F92078400702D51FA003F09D
:104B90006FF92078000702D520A003F069F920788A
:104BA000C00602D520A003F063F92078000607D5DF
:104BB00009480F300168BDE810401DA003F058B946
:104BC000BDE810401EA003F053B9000062757320C9
:104BD0006661756C743A0A0029ED00E05343425F48
:104BE000434653525F424653523A3078253032584A
:104BF0002000000049425553455252200000000059
:104C0000505245434953455252200000494D50529D
:104C1000454349534552522000000000554E53541D
:104C20004B4552522000000053544B455252200035
:104C30005343422D3E424641523A253038580A00ED
:104C40000A00000010B500F047FF002010BD10B5AD
:104C500001F082F8002010BD10B50446C06802F0D3
:104C6000CBFEE06902F0C8FE2046BDE8104002F02D
:104C7000C3BE10B50446806D08B1FFF7EDFF2046B6
:104C8000BDE8104002F0B8BE70B50D4606460024DF
:104C900005E000BF56F82400FFF7EBFF641CAC42B0
:104CA000F8D33046BDE8704002F0A6BE2DE9F041D1
:104CB000074606981C4615460E4628B105A0FFF784
:104CC0007DF923462A4631463846BDE8F04101F0D9
:104CD0001DBD0000576172696E673A204E6F2073E8
:104CE000756368206F6620646566757A7A6966699F
:104CF0006572210A00000000012A01D0401A7047A5
:104D0000084470472DE9F04107464FF07E55904624
:104D10000E462846FBF7C0FB044629463846FBF7FB
:104D2000BEFB2146FBF7BEFB2946FBF7B8FB41461D
:104D300002F00CFA044641462846FBF7ADFB054657
:104D400031463846FBF7AEFB294602F0FFF9214613
:104D5000BDE8F041FBF7A6BB2DE9F04104464FF05A
:104D600019404E49002500EB440088424AD84C497E
:104D70002046FBF797FBFBF7E0FD8046FBF789FC3D
:104D8000064648494046FBF78DFB074646494046E4
:104D9000FBF788FB2146FBF782FB3946FBF77CFBE0
:104DA00004464249FBF77EFB4149FBF723FB2146C2
:104DB000FBF778FB6FF04141FBF71CFB2146FBF74B
:104DC00071FB3C49FBF716FB2146FBF76BFB0146E9
:104DD000394806F00304784450F82400FBF762FBDE
:104DE0003649794451F82410FBF704FB34497944DF
:104DF00051F82410FBF7FEFAB11085BBBDE8F04175
:104E0000FBF7C0BB4FF0FF4131EA040018D04FF070
:104E1000CE41B1EB440F84BF4FF07E50BDE8F0812E
:104E20002849B1EB440F28BF0125A0D20220FFF78B
:104E300061F914F0004F0ED0BDE8F041FFF71DB945
:104E4000204614F5000F04BF0020BDE8F081BDE846
:104E5000F041FFF704B9BDE8F041FFF709B9FBF7EE
:104E600091FB04000BD0B4F1FF4F0FD0FFF7CAF84D
:104E7000042808BFFFF701F92046BDE8F0810220B1
:104E8000FFF738F9BDE8F041FFF7F7B80220FFF768
:104E900031F9BDE8F041FFF7EBB800000000501E0B
:104EA0003BAAB840F4FD05370070313E12BB2A3DE5
:104EB00012BB2A3EFFFF7F3FFA470000DE4700009B
:104EC000C24700000000A085104810B5416991F864
:104ED0002110890703D40E490020087014E00169ED
:104EE00029B14FF480720A48FBF73EFA0CE001F05A
:104EF0001DFE08B107A100E008A10548FBF755FA1F
:104F000008A10348FBF724FA014810BDC0030020A4
:104F1000820700206D7368200000000066696E73D0
:104F2000682000003E0000000349496911F8212F64
:104F300060F341020A707047C0030020014AC2E9D1
:104F400000017047C00300207CB516491648FFF7E2
:104F5000F5FF7821012002F0FBFC144C6061D0B118
:104F60000A211520CDE900014FF480530022104999
:104F700010A003F005FC054600231A460FA1606946
:104F800003F056FA0120FFF7CFFF15B1284603F0D2
:104F900049FD00207CBD0BA002F06AFF4FF0FF30FE
:104FA0007CBD0000189D0008E09B0008C0030020A5
:104FB000DD4F0008747368656C6C0000736872786C
:104FC000000000006E6F206D656D6F727920666F56
:104FD00072207368656C6C0A00000000984D686967
:104FE00010F8211F41F001010170FFF76DFF02F081
:104FF0003FFF002602F09AFD0400FBD41B2C07D0D3
:10500000686990F82010012907D002290ED017E016
:105010006969012081F82000ECE75B2C02D080F860
:1050200020600DE0022180F82010E3E780F8206086
:10503000412CDFD0422CDDD0442C38D0432C43D03F
:10504000002CD7D0FF2CD5D0092C4ED07F2C75D07A
:10505000082C73D00D2C70D00A2CFCD0B0F8721034
:10506000502901D3A0F87260B0F87430B0F8721013
:105070008B427DD2CA1A00F1220123301944184410
:1050800002F0BEFF6869B0F8741022300C546869F1
:1050900090F82110C90706D0B0F8741022300144EE
:1050A00068A002F0E5FE6869B0F87440A5E0B0F8C9
:1050B000740000289ED064A002F0DAFE686930F81F
:1050C000741F491E018095E7B0F87410B0F8722083
:1050D00091428FD22230095C5CA002F0C9FE69695E
:1050E00031F8740F401C088084E7002403E056A0C8
:1050F00002F0BEFE641C6869B0F87400A042F6DCE1
:105100006C6953A0223402F0B3FE01F00FFD0128B8
:1051100002D1204601F046FCFFF7D6FE01462246AA
:105120004CA002F0A5FE68692230FBF729F96969F5
:1051300021F8720F48805DE700E03DE0B0F8742090
:10514000002AC0D0B0F87210521E491E89B293B224
:10515000A0F87210A0F87430994224D9CA1A00F14C
:10516000230122301944184402F04AFF686900E024
:1051700049E0B0F8721022300E546869B0F874102B
:105180002230014435A002F073FE6869B0F8744023
:1051900003E02DA002F06CFE641C6869B0F8720098
:1051A000A04290DBF5E72FA002F062FE6869B0F83C
:1051B000721022300E541DE701F0B8FC01280DD109
:1051C000686990F82100C00702D021A002F050FECB
:1051D0006869B0F87210223001F03AFCFFF774FEF3
:1051E00002F046FE686950212230FBF7A6F8686994
:1051F00022E015A002F03CFE641C6869B0F8720061
:10520000A042F6DC0AE022300C54686990F82100D4
:10521000C00703D021460DA002F02AFE6869B0F84D
:105220007210491C89B2A0F87210B0F87420521C98
:10523000A0F874205029BED320F8726F4680D9E6BA
:10524000C003002025730000080000002563000053
:105250000A00000025732573000000000825732054
:10526000200800000820080070B50C460546FBF732
:105270004BFD00F07040B0F1005F07D024F000401B
:10528000C0F1FF40C00F04BF204670BD284670BD6E
:1052900070B50C460546FBF737FD00F07040B0F1E5
:1052A000004F07D024F00040C0F1FF40C00F04BF02
:1052B000204670BD284670BD032A01D2FFF720BCEE
:1052C000062A02D2D21E01F0A7BC4FF07C52FFF793
:1052D00019BD38B504468DF8000069460320ABBE01
:1052E000204638BD10B5002821D0114B0022001FE8
:1052F000196803E0814203D80A4649680029F9D1B8
:1053000052B11368841A9C4204D10068184410609A
:10531000104602E0506000E0186039B102680B1AD4
:10532000934203D10B681A4402604968416010BD82
:10533000800400202DE9F74FA4B04FF00008394F4A
:1053400015468346CDF84480444646460DF14C0947
:105350000DF1040ACDF84880286900EB0612E868D0
:105360000168584601F056F9B84204DD4AF82400B5
:1053700049F82460641C761C072EEDDBCB46002622
:10538000D1461194286900EB0612E8684168259817
:1053900001F040F9B84204DD49F824004BF82460DC
:1053A000641C761C072EEDDB1198211A129138B17E
:1053B00031B14843800001F08BF80746002621E018
:1053C0000020414603E0EA6942F82010401C6A6868
:1053D0008242F8D827B0BDE8F08F00240EE0119883
:1053E000AA68011959F8260059F82110FFF764FF3F
:1053F000129906FB0141641C47F821001298A04253
:10540000EDD8761C1198B042E7D82B4611AA13A903
:105410003846CDF80080FFF749FC3846FFF762FFB9
:10542000D8E7000017B7D13870B506460D462020E2
:1054300002F06EFD04467019C4E90065800002F0B8
:1054400067FDE060A80002F063FDE061204670BDEA
:10545000F0B50024DDE9056503E0C76847F82410CE
:10546000641CD0E9007C6744A742F6D800210C46B2
:1054700003E0C76947F82140491C47688F42F8D8C4
:1054800006618260C0E90535F0BD00002DE9F047F6
:10549000156B14468A46D562FBF701F80646294685
:1054A0002063FAF7F9FFA16AFBF72EF8364F394669
:1054B000FAF7F8FF05463046616AFBF725F83946EA
:1054C000FAF7F0FF2946A26DFFF734FFA56D3946C4
:1054D000E8690068FBF718F8E168FAF7E3FF21686C
:1054E0008846FAF787FF8146A0616868002602288F
:1054F00009D3E86939464068FBF706F82169FAF7ED
:10550000D1FFE06100E0E6616868032809D3E8693B
:1055100039468068FAF7F8FF6169FAF7C3FF20623D
:1055200000E0E661E1696068FAF764FF276B3946DD
:10553000FAF7B8FF616BFAF75DFF6063064638461D
:10554000E16AFAF7A9FF0546216AA068FAF752FF57
:105550002946FAF7A7FF054649464046FAF74AFFAB
:105560003946FAF79FFF3146FAF744FF2946FAF722
:1055700041FF05465146206CFAF794FF2946FAF799
:1055800039FF6064BDE8F087000040402DE9FF4F1F
:105590008FB0866804469A46934630461099FAF7CB
:1055A000B3FF6568814628461099FAF7ADFF276872
:1055B000804638461099FAF7A7FF0DF12C0E1E9978
:1055C0004FF47A7C4FF4FA7300228EE80E10DDE976
:1055D0001C120B4B0DF1100CCDF820A003938CE89E
:1055E000010BCDE90912D4E904018DE80B00324624
:1055F00029463846E36802F051F913B0BDE8F08F50
:105600000000C84270B515461C461A46FFF73EFF1B
:10561000FBF73FF801462A46E06CFFF76DFBA26CF2
:10562000216DBDE8704000F035B900002DE9FF4F55
:1056300083B00746DDE91286DDE910A99B46B0007C
:1056400002F066FC0546002410E000BFCDF800A083
:10565000CDE90198DDE90412C4EBC40007EB80003A
:105660005B46FFF793FF45F82400641CB442EDD37A
:1056700007B02846BDE8F08F10B5124C20688007AF
:1056800002D511A002F0F4FB2068400011D50D48AE
:10569000C01E007808B1FFF761FA0A48001F0078C1
:1056A00008B100F04BFF0748801E008808B103F0E6
:1056B000EBFD2068002804DABDE8104008A002F0E5
:1056C000D7BB10BD2CED00E06661696C6564207687
:1056D0006563746F722066657463680A0000000079
:1056E0006465627567206576656E740A0000000067
:1056F00010B502A002F0BCFB002010BD48656C6C28
:105700006F2052542D546872656164210A000000B4
:1057100070B50C46032804DA21A002F0A9FB27A0EB
:105720001FE030A16068FAF732FE30B12EA1606848
:10573000FAF72DFE18B12DA013E0364E00E0364EDC
:10574000202536A1A068FAF722FE70B134A1A06826
:10575000FAF71DFE88B133A1A068FAF718FEA0B1D0
:1057600032A0BDE8704002F083BB002229463046DB
:10577000FBF76DFF3BA061680DE001222946304632
:10578000FBF765FF3BA0616805E029463046FBF763
:1057900056FF61683BA0BDE8704002F069BB0000A5
:1057A00055736167653A206C6564205B722F675D95
:1057B000205B6F6E2F6F66665D0A00004578616D35
:1057C000706C653A206C65642072206F6E20202812
:1057D0005475726E206F6E20526564204C454429CA
:1057E0000A00000072000000670000004572726F3E
:1057F000723A20556E6B6E6F776E20636F6C6F72AE
:10580000212055736520277227206F722027672774
:105810002E0A0000000C0140001801406F6E0000CD
:105820006F666600746F67676C6500004572726F23
:10583000723A20556E6B6E6F776E20616374696F7C
:105840006E212055736520276F6E272C20276F66E9
:105850006627206F722027746F67676C65272E0A92
:10586000000000004C4544202573206973204F4EF2
:105870000A0000004C4544202573206973204F46E0
:10588000460A00004C454420257320546F67676C1E
:1058900065640A00884201DD084670479042FCDAE0
:1058A0001046704770B50CA002F0E2FA0F48104D98
:1058B00004680BE002220FA12068FAF77FFD20B1F7
:1058C000D4E900120CA002F0D3FA0C342868844208
:1058D000F0D3002070BD00002D2D46756E637469F5
:1058E0006F6E204C6973743A0A000000C0030020F8
:1058F000C40300205F5F0000252D313673202D2D5D
:105900002025730A000000002DE9F04104461E46E0
:1059100017460D46084602F0C1FC001D20602572A6
:1059200000206760C4E90360BDE8F0812DE9F04123
:105930000D4600212961E96891B1297A81B12E686B
:1059400088B10446FAF712FC0146A4F10C002A7A49
:10595000007A20F08000904209D00846FAF70AFC4D
:105960000020BDE8F0813446FAF700FC0146686883
:1059700000272468B44201D1002404E010C0EA6882
:105980007F1CBA42F5D10846FAF7F4FB20462F6196
:10599000E7E700002DE9F04196B000262FA4082388
:1059A0000CAA052106A8FFF7AFFF08208046014694
:1059B00022462CA002F05CFA404601F021F932A008
:1059C00002F056FA06A93046FFF7B0FF064600255A
:1059D0003BE00CA850F825400C3CFAF7C7FB014609
:1059E000207A9DF8202020F080009042084602D0C6
:1059F000FAF7C0FB28E0FAF7BDFB606904F1140771
:105A0000B842384613D002F05FFA228C618C0091C4
:105A1000CDE9012023460822414622A002F028FABF
:105A2000384603F0F9FA25A002F022FA0CE002F061
:105A30004BFA218C628CCDE900210290234608228A
:105A400041461FA002F014FA6D1C0A98A842C0DC5F
:105A5000002EB7D116B00020BDE8F0816D61696CF1
:105A6000626F7800252D2A2E7320656E747279205E
:105A700073697A652073757370656E6420746872DB
:105A80006561640A00000000202D2D2D2D20202DA1
:105A90002D2D2D202D2D2D2D2D2D2D2D2D2D2D2D43
:105AA0002D2D0A00252D2A2E2A732025303464201E
:105AB00020253034642025643A0000000A000000EC
:105AC000252D2A2E2A7320253034642020253034B9
:105AD000642025640A00000010B5074C07A0E168A7
